:100000008FC0A9C0A8C0A7C0A6C0A5C0A4C0A3C0D7
:1000100079C7A1C0A0C09FC09EC09DC09CC09BC00E
:100020009AC099C098C000407A10F35A00A0724E4E
:1000300018090010A5D4E80000E87648170000E48D
:100040000B54020000CA9A3B000000E1F5050000D5
:1000500080969800000040420F000000A08601003A
:100060000000102700000000E8030000000064000A
:10007000000000000A000000000001000000000075
:100080002C76D888DC674F0823DFC1DFAE59E1B199
:10009000B796E5E3E453C63AE651997696E8E6C2A8
:1000A0008426EB898C9B62ED407C6FFCEFBC9C9FAF
:1000B00040F2BAA56FA5F490055A2AF75C936B6CD1
:1000C000F9676DC11BFCE0E40D47FEF520E6B500C5
:1000D000D0ED902E0300943577050080841E080033
:1000E00000204E0A000000C80C333333330F986EE3
:1000F00012831141EF8D2114893BE65516CFFEE6A0
:10010000DB18D1844B381BF77C1D901DA4BBE42465
:10011000203284725E228100C9F124ECA1E53D27E2
:1001200011241FBECFE5D4E0DEBFCDBF11E0A0E6B5
:10013000B0E0EEECF8E102C005900D92A035B107F9
:10014000D9F721E0A0E5B1E001C01D92A337B207C5
:10015000E1F7EDD6BACB54CFC59A88E18A95F1F78D
:1001600000C0C598089598B3907F98BB98B38295C6
:100170008F70982B98BBF0DF0895CF93C82FC49A47
:10018000F2DF8C2F8295807FEEDF88E38A95F1F78E
:1001900000C0CF910895CF93C82FC498E4DF8C2F6F
:1001A0008295807FE0DF83E38A95F1F700C0CF91ED
:1001B000089581E0F0DF83E397E00197F1F7089578
:1001C00087B38F6387BB88B3807C88BB8FEF95E351
:1001D0000197F1F700C0000080E3C5DF8FEF91E1E8
:1001E0000197F1F700C00000B7DF89E993E00197BC
:1001F000F1F700C0B1DF89E993E00197F1F700C0A2
:1002000080E2B1DF8FEF91E10197F1F700C00000CC
:1002100088E2C1DF8CE0BFDF86E0BDDFCADF089582
:1002200082E0B9DF83E397E00197F1F70895623048
:1002300059F018F4613071F405C0633039F064305E
:1002400049F406C0805805C0805403C0805701C0DF
:100250008053A1DF0895CF93DF93EC018881882339
:1002600029F021968ADF89918111FCCFDF91CF910E
:10027000089597B18F71907E982B97B9369A3699D9
:10028000FECF24B135B1822F932F089580916F0155
:10029000882399F0863089F090916D0180917001EA
:1002A00098131BC090916B0180917101981315C038
:1002B00081E080936A01AD9A089590916E018091DA
:1002C000700198130AC090916C018091710198138C
:1002D00004C081E080936A01AD9A0895CF92DF92C5
:1002E000EF92FF920F931F93CF93DF9380E0C1DFD4
:1002F00080E0BFDFBC0180E090E03FD720E030E04D
:1003000040EA5BE3C8D7062F172FD82FC92F20E06C
:1003100030EC48E255E4BFD76B017C01202F312F30
:100320004D2F5C2F60E070E080EA90E459D69B018D
:10033000AC01C701B601B9D625E238EA43E95DE36D
:10034000AAD76B017C0160916400772767FD7095E7
:100350006E5C7F4F882777FD8095982F10D721ED11
:1003600032E44EE253E43CD69B01AC01C701B60136
:1003700038D660936501709366018093670190930E
:100380006801DF91CF911F910F91FF90EF90DF9067
:10039000CF90089580917201809369018C3350F160
:1003A0009DDF10927201809171018F5F8C3318F480
:1003B0008093710107C010927101809170018F5F6D
:1003C00080937001809170018831A0F010927001CB
:1003D00080916F018F5F80936F01909163009F5FA9
:1003E00090936300873010F010926F018091640148
:1003F0008093720180916A01811101C047DF0895E5
:100400008330B9F020F4813061F078F406C0853093
:10041000C1F098F08630E1F418C085E690E01BDF6B
:10042000089589E690E017DF08958DE690E013DFE8
:10043000089581E790E00FDF089585E790E00BDFF6
:10044000089589E790E007DF08958DE790E003DFE6
:100450000895882319F0813079F52BC080916F01C0
:10046000CFDF4AE050E060E571E08091630090E00A
:1004700095D780E591E0EFDE81E890E0ECDE4AE0A0
:1004800050E060E571E08091620090E087D780E500
:1004900091E0E1DE81E890E0DEDE4AE050E060E5F8
:1004A00071E08091610090E079D780E591E0D3DE42
:1004B000089580916F01A4DF0895882321F0813091
:1004C00009F042C01AC04AE050E060E571E0809156
:1004D000700190E063D780E591E0BDDE8CEC90E0A8
:1004E000BADE4AE050E060E571E08091710190E091
:1004F00055D780E591E0AFDE08954AE050E060E531
:1005000071E08091700190E049D780E591E0A3DE31
:100510008CEC90E0A0DE4AE050E060E571E0809174
:10052000710190E03BD780E591E095DE8CEC90E0A6
:1005300092DE4AE050E060E571E08091720190E067
:100540002DD780E591E087DE08950F931F93CF9319
:10055000C62F813021F0823009F06DC054C029DEF1
:100560005FDEC330F9F020F4C13089F0C0F407C079
:10057000C53039F1E0F0C63009F05DC03FC080E021
:1005800068DF83EA90E067DE80E097DF54C080E0B8
:1005900060DF83EA90E05FDE81E08FDF4CC080E0C7
:1005A00058DF49C081E055DF81E087DF44C083E840
:1005B00090E051DE62E080E03ADE8DE890E04BDED4
:1005C0003AC08AE990E047DE4AE050E060E571E039
:1005D00080916D0190E0E2D680E591E03CDE8CEC0C
:1005E00090E039DE4AE050E060E571E080916B0117
:1005F00090E0D4D680E591E02EDE1DC081E029DFB9
:1006000080E05BDF18C062E080E011DEC13099F469
:100610006091650170916601809167019091680118
:1006200000E511E022E042E099D6C80114DE8FED2A
:10063000A4DD83E4A2DDCF911F910F910895CF93A4
:10064000DF93E901829925C0EFEFF3EB3197F1F7E2
:1006500000C00000EFEFF3E23197F1F700C00000B7
:10066000829917C0FC0120812F5F261710F4208388
:1006700002C0FC011082642F81E067DF60E082E04D
:1006800064DF8881882329F0219677DD89918111A3
:10069000FCCFDF91CF9108951F93CF93DF938230EA
:1006A00009F4B7C030F4882369F0813009F0F3C150
:1006B00065C0843009F44BC108F4FAC0853009F0F4
:1006C000EAC197C166E081E040DF60E082E03DDFA3
:1006D00085EA90E0C0DDC0E0839928C08FEF93EBFE
:1006E0000197F1F700C000008FEF93E20197F1F757
:1006F00000C0000083991AC0CF5F5BDD66E081E037
:1007000024DF60E082E021DFC13041F018F0C23028
:1007100069F408C085EA90E09EDD0EC08DEA90E0A5
:100720009ADD13C085EB90E096DD18C0C13069F00A
:1007300018F0C230E1F412C025EA30E046E06CE384
:1007400080E791E07CDFC0E0C7CF2DEA30E046E0F3
:100750006CE381E791E073DFC1E0BECF25EB30E0D1
:1007600046E067E08FE691E06ADFC2E0B5CFC330D4
:1007700008F4B2CF1092720180E0A0C11ADD50DD02
:100780008FEB90E068DD60E082E0DFDE4AE050E081
:1007900060E571E08091600090E000D680E591E036
:1007A0005ADD90917201809169019813F3DD82996D
:1007B00074C18FEF93EB0197F1F700C000008FEF4A
:1007C00093E20197F1F700C00000829968C180911F
:1007D00060008F5F80936000ECDC22DD8FEB90E0A7
:1007E0003ADD60E082E0B1DE4AE050E060E571E0D1
:1007F0008091600090E0D2D580E591E02CDD809181
:100800006000833008F44DC181E08093600080E097
:1008100055C1CFDC05DD8EEC90E01DDD60E082E0AF
:1008200094DE809164014AE050E060E571E0992730
:1008300087FD9095B3D580E591E00DDD9091720133
:10084000809169019813A6DD82992DC18FEF93EBFA
:100850000197F1F700C000008FEF93E20197F1F7E5
:1008600000C00000829921C1809164018F5F809354
:1008700064019FDCD5DC8EEC90E0EDDC60E082E092
:1008800064DE809164014AE050E060E571E0992700
:1008900087FD909583D580E591E0DDDC8091640152
:1008A00085300CF404C18BEF8093640180E006C1B5
:1008B00080DCB6DC8EED90E0CEDC60E082E045DEF0
:1008C000809164004AE050E060E571E0992787FD7F
:1008D000909564D580E591E0BEDC909172018091A5
:1008E0006901981357DD8299E4C08FEF93EB01976C
:1008F000F1F700C000008FEF93E20197F1F700C01D
:1009000000008299D8C0809164008F5F809364005A
:1009100050DC86DC8EED90E09EDC60E082E015DE4F
:10092000809164004AE050E060E571E0992787FD1E
:10093000909534D580E591E08EDC809164008A301A
:100940000CF4BBC086EF8093640080E0B7C065E024
:1009500081E0FBDD60E082E0F8DD80EF90E07BDCB1
:10096000C0E011E0D0E0209172019091690129135B
:1009700011DD839922C08FEF93EB0197F1F700C04F
:1009800000008FEF93E20197F1F700C00000839918
:1009900014C0CF5F65E0812FD8DD6D2F82E0D5DDFB
:1009A000CC2319F0C13049F404C080EF90E053DC4F
:1009B00009C08CEF90E04FDC0EC0CC2319F0C130A1
:1009C00099F409C020EF30E045E068E18DE691E060
:1009D00036DECD2FC8CF2CEF30E045E06CE38BE660
:1009E00091E02DDEC12FBFCFC23008F4BCCF80E034
:1009F00065C065E081E0A9DD60E082E0A6DD88E019
:100A000091E029DCC0E011E0D0E0209172019091EA
:100A100069012913BFDC839922C08FEF93EB019703
:100A2000F1F700C000008FEF93E20197F1F700C0EB
:100A30000000839914C0CF5F65E0812F86DD6D2FA4
:100A400082E083DDCC2319F0C13049F404C088E092
:100A500091E001DC09C084E191E0FDDB0EC0CC2314
:100A600019F0C13099F409C028E031E045E068E1AF
:100A70008EE691E0E4DDCD2FC8CF24E131E045E002
:100A80006CE38CE691E0DBDDC12FBFCFC23008F410
:100A9000BCCF80E013C081E011C080E00FC080E0D7
:100AA0000DC080E00BC080E009C080E007C080E09E
:100AB00005C080E003C080E001C080E0DF91CF91FD
:100AC0001F91089582E28093710185E08093700107
:100AD0001092720196E090936F0180936D0183E212
:100AE00080936B0197E090936E0180936C0184E09A
:100AF000D3DD80E0D1DD81E0809364010895CF9360
:100B000080E0C6E0833009F4E5C030F4813009F4B8
:100B100051C0823039F496C0843009F423C1853045
:100B200009F470C146DB65E081E00FDD60E082E042
:100B30000CDD80E291E08FDB2BC0909172018091FF
:100B40006901981327DC829913C08FEF93EB01970B
:100B5000F1F700C000008FEF93E20197F1F700C0BA
:100B60000000829905C084E097DD80E291E073DBAC
:100B700084990EC08FEF93EB0197F1F700C000004E
:100B80008FEF93E20197F1F700C00000849B8DC1C5
:100B90008399D3CF8FEF93EB0197F1F700C000005B
:100BA0008FEF93E20197F1F700C000008399C5CF62
:100BB00081E0A8CFFEDA65E081E0C7DC60E082E09A
:100BC000C4DC89E291E047DB2BC0909172018091F7
:100BD00069019813DFDB829913C08FEF93EB0197C4
:100BE000F1F700C000008FEF93E20197F1F700C02A
:100BF0000000829905C085E04FDD89E291E02BDBA2
:100C000084990EC08FEF93EB0197F1F700C00000BD
:100C10008FEF93E20197F1F700C00000849B45C17C
:100C20008399D3CF8FEF93EB0197F1F700C00000CA
:100C30008FEF93E20197F1F700C000008399C5CFD1
:100C400082E060CFB6DA62E081E07FDC60E082E0E3
:100C50007CDC8FEB90E0FFDA2BC0909172018091E9
:100C60006901981397DB829913C08FEF93EB01977B
:100C7000F1F700C000008FEF93E20197F1F700C099
:100C80000000829905C081E007DD83E391E0E3DAAB
:100C900084990EC08FEF93EB0197F1F700C000002D
:100CA0008FEF93E20197F1F700C00000849BFDC035
:100CB0008399D3CF8FEF93EB0197F1F700C000003A
:100CC0008FEF93E20197F1F700C000008399C5CF41
:100CD00083E018CF6EDA63E081E037DC60E082E029
:100CE00034DC81E491E0B7DA2BC0909172018091FD
:100CF000690198134FDB829913C08FEF93EB019733
:100D0000F1F700C000008FEF93E20197F1F700C008
:100D10000000829905C080E0BFDC81E491E09BDAAD
:100D200084990EC08FEF93EB0197F1F700C000009C
:100D30008FEF93E20197F1F700C00000849BB5C0EC
:100D40008399D3CF8FEF93EB0197F1F700C00000A9
:100D50008FEF93E20197F1F700C000008399C5CFB0
:100D600084E0D0CE26DA5CDA8EEC90E074DA60E0D3
:100D700082E0EBDB809164014AE050E060E571E0E5
:100D8000992787FD90950AD380E591E064DA28C021
:100D900090917201809169019813FCDA829910C0D8
:100DA0008FEF93EB0197F1F700C000008FEF93E214
:100DB0000197F1F700C00000829902C082E06CDC6C
:100DC00084990EC08FEF93EB0197F1F700C00000FC
:100DD0008FEF93E20197F1F700C00000849B65C09C
:100DE0008399D6CF8FEF93EB0197F1F700C0000006
:100DF0008FEF93E20197F1F700C000008399C8CF0D
:100E000085E080CED6D90CDA8EED90E024DA60E071
:100E100082E09BDB809164004AE050E060E571E095
:100E2000992787FD9095BAD280E591E014DA2AC01F
:100E300090917201809169019813ACDA829910C087
:100E40008FEF93EB0197F1F700C000008FEF93E273
:100E50000197F1F700C00000829902C083E01CDC1A
:100E6000849910C08FEF93EB0197F1F700C0000059
:100E70008FEF93E20197F1F700C00000849902C060
:100E80002DDA13C08399D4CF8FEF93EB0197F1F74D
:100E900000C000008FEF93E20197F1F700C000005F
:100EA0008399C6CF1BDA8C2F2DCE81E0CF91089588
:100EB00087D964E081E049DB2FEF8FED90E121508D
:100EC00080409040E1F700C0000073D980E487B90A
:100ED00083E086B9379A369A3699FECF84B195B1B8
:100EE00082B38C6182BB80E284BBECDD81EF8DBD7F
:100EF00080EF8CBD84E089BF85E08EBD7894109230
:100F00006A0108951F920F920FB60F9211248F93CA
:100F100081EF8DBD80EF8CBD809172018F5F8093DA
:100F200072018F910F900FBE0F901F901895C0DF28
:100F30009091720180916901981739F02BDA63E082
:100F400081E003DB61E082E000DB829911C08FEF7A
:100F500093EB0197F1F700C000008FEF93E2019748
:100F6000F1F700C00000829903C010926A01AD98A9
:100F7000849915C08FEF93EB0197F1F700C0000043
:100F80008FEF93E20197F1F700C00000849907C04A
:100F9000B6DD63E081E0D9DA61E082E0D6DA8399F8
:100FA000C7CF8FEF93EB0197F1F700C000008FEFF1
:100FB00093E20197F1F700C000008399B9CF8091C7
:100FC0006000823031F0833031F0813029F4AD9A05
:100FD00003C0AD9A01C0AD9AAB9BAACFAD98A8CF84
:100FE0005058BB27AA270ED01CC10DD130F012D10A
:100FF00020F031F49F3F11F41EF402C10EF4E0958D
:10100000E7FBF8C0E92F1ED180F3BA176207730718
:101010008407950718F071F49EF536C10EF4E0953B
:101020000B2EBA2FA02D0B01B90190010C01CA01A2
:10103000A0011124FF27591B99F0593F50F4503E4D
:1010400068F11A16F040A22F232F342F4427585F3F
:10105000F3CF469537952795A795F0405395C9F757
:101060007EF41F16BA0B620B730B840BBAF091500F
:10107000A1F0FF0FBB1F661F771F881FC2F70EC0AE
:10108000BA0F621F731F841F48F487957795679581
:10109000B795F7959E3F08F0B3CF9395880F08F06A
:1010A0009927EE0F9795879508950CD0BAC0B2D0C6
:1010B00040F0A9D030F021F45F3F19F09BC05111EE
:1010C000E4C09EC0BFD098F39923C9F35523B1F370
:1010D000951B550BBB27AA2762177307840738F0A7
:1010E0009F5F5F4F220F331F441FAA1FA9F333D006
:1010F0000E2E3AF0E0E830D091505040E695001CBA
:10110000CAF729D0FE2F27D0660F771F881FBB1F75
:10111000261737074807AB07B0E809F0BB0B802D4F
:10112000BF01FF2793585F4F2AF09E3F510568F09B
:1011300061C0ABC05F3FECF3983EDCF386957795DA
:101140006795B795F7959F5FC9F7880F911D96959D
:10115000879597F90895E1E0660F771F881FBB1FF9
:10116000621773078407BA0720F0621B730B840BA6
:10117000BA0BEE1F88F7E0950895E89409C097FB35
:101180003EF490958095709561957F4F8F4F9F4F5E
:101190009923A9F0F92F96E9BB279395F6958795A2
:1011A00077956795B795F111F8CFFAF4BB0F11F465
:1011B00060FF1BC06F5F7F4F8F4F9F4F16C088230C
:1011C00011F096E911C0772321F09EE8872F762F42
:1011D00005C0662371F096E8862F70E060E02AF083
:1011E0009A95660F771F881FDAF7880F969587956F
:1011F00097F9089597F99F6780E870E060E0089597
:101200009FEF80EC089500240A941616170618061E
:101210000906089500240A941216130614060506FA
:101220000895092E0394000C11F4882352F0BB0F8B
:1012300040F4BF2B11F460FF04C06F5F7F4F8F4FEE
:101240009F4F089557FD9058440F551F59F05F3F29
:1012500071F04795880F97FB991F61F09F3F79F0D8
:1012600087950895121613061406551FF2CF46955A
:10127000F1DF08C0161617061806991FF1CF8695DC
:101280007105610508940895E894BB2766277727C0
:10129000CB0197F908950BD0C4CFB5DF28F0BADFA2
:1012A00018F0952309F0A6CFABCF1124EECFCADFFB
:1012B000A0F3959FD1F3950F50E0551F629FF00169
:1012C000729FBB27F00DB11D639FAA27F00DB11DC2
:1012D000AA1F649F6627B00DA11D661F829F22274B
:1012E000B00DA11D621F739FB00DA11D621F839FD2
:1012F000A00D611D221F749F3327A00D611D231FA8
:10130000849F600D211D822F762F6A2F11249F57F5
:1013100050408AF0E1F088234AF0EE0FFF1FBB1F18
:10132000661F771F881F91505040A9F79E3F5105B7
:1013300070F060CFAACF5F3FECF3983EDCF3869568
:1013400077956795B795F795E7959F5FC1F7FE2B62
:10135000880F911D9695879597F90895EF920F93B1
:101360001F93CF93C02F47FF02C034E101C034E088
:10137000E42FFF27E7FDF095F7FF03C0F195E19516
:10138000F109E32E022F2E2F4C2F512F26D08C2F18
:10139000912FCF911F910F91EF900895FB019F0125
:1013A000E8944230BCF04532ACF44A3029F497FB63
:1013B0001EF4909581959F4F642F772772D2805DA0
:1013C0008A330CF0895D8193CB010097A9F716F45D
:1013D0005DE251931082C90154C26F927F929F9235
:1013E000AF92BF92CF92DF92EF92FF920F931F9333
:1013F000CF93DF93CDB7DEB729970FB6F894DEBF52
:101400000FBECDBF6A01B22E102F0C3318F4F02E90
:10141000F39402C05CE3F52E0F2D27E0AE014F5F81
:101420005F4F57D17981272F2970213031F0E1FCAE
:1014300006C0E0FE06C060E205C06DE203C06BE2DC
:1014400001C060E073FF3DC0662311F084E001C07D
:1014500083E08B1510F4B81A01C0B12CE4FC0BC06A
:101460008B2DF60190E202C0919381508111FCCF47
:10147000CB0CD11CB12C662319F0D6016D936D01F4
:10148000E2FE0AC08EE4F601808391E491838283B8
:10149000F3E0CF0ED11C0CC08EE6D6018C9391E602
:1014A00011969C93119712968C93B3E0CB0ED11C9E
:1014B0008B2DF60190E202C0919381508111FCCFF7
:1014C00040C072FF45C0662311F084E001C083E094
:1014D0008B1510F4B81A01C0B12CE4FC0BC08B2D95
:1014E000F60190E202C0919381508111FCCFCB0CA8
:1014F000D11CB12C662319F0F60161936F01E2FE55
:101500000EC089E4D6018C938EE411968C931197CA
:1015100086E412968C93B3E0CB0ED11C0AC089E608
:10152000F60180838EE6818386E68283F3E0CF0E28
:10153000D11C8B2DF60190E202C091938150811154
:10154000FCCFF601EB0DF11D10822EEF3FEFACC08A
:10155000A1E0611101C0A0E04A2F50E01816190661
:1015600024F49C012F5F3F4F02C021E030E0240FA4
:10157000351F112329F0412F50E04F5F5F4F02C00C
:1015800040E050E0420F531F2B2D30E0421753072D
:1015900014F4B41A01C0B12C3E2D3071E4FC0DC01E
:1015A000E3FC0BC02B2DF60140E202C04193215019
:1015B0002111FCCFCB0CD11CB12CAA2319F0D601E0
:1015C0006D936D0131110BC02B2DF60130E302C07C
:1015D000319321502111FCCFCB0CD11CB12CF80E32
:1015E0000A8140E1A42EA72274FF03C0013309F44D
:1015F000FA941F142CF42F2D293018F028E001C084
:1016000021E0AC0197FF02C040E050E060E070E0F4
:101610003EE2932EFC01E21BF1099F01DC01A41BB9
:10162000B50BFE013196EA0FFB1FA12FB0E0662437
:1016300077246A1A7B0A4F3F1FEF510719F4D6012E
:101640009D926D018417950754F0241735073CF4DB
:101650007F01E60EF71ED70111961C9101C010E321
:10166000415051096F5F7F4F4615570524F0D60151
:101670001D936D01E0CF4817590739F4063320F464
:10168000053319F4A11001C011E3F60111938B2D5C
:10169000DF0190E202C09D9381508111FCCFEB0DE0
:1016A000F11D108220E030E0C90129960FB6F894B0
:1016B000DEBF0FBECDBFDF91CF911F910F91FF9085
:1016C000EF90DF90CF90BF90AF909F907F906F9002
:1016D0000895283008F027E03327DA01990F311DEB
:1016E00087FD916000966105710539F432602E5FC7
:1016F0003D9330E32A95E1F708959F3F30F080381D
:101700007105610509F03C5F3C5F3D93913008F045
:101710008068911DDF93CF931F930F93FF92EF92F9
:10172000192F987F9695E92F96959695E90FFF27A3
:10173000E058FF4F99273327EE24FF24A701E70144
:1017400005900894079428F4360FE71EF81E491FE9
:10175000511D660F771F881F991F0694A1F70590EA
:10176000079428F4E70EF81E491F561FC11D770F76
:10177000881F991F661F0694A1F70590079428F407
:10178000F80E491F561FC71FD11D880F991F661FCE
:10179000771F0694A1F70590079420F4490F561F70
:1017A000C71FD81F990F661F771F881F0694A9F7B8
:1017B00084911095177041F0D695C7955795479528
:1017C000F794E7941A95C1F7E6E2F0E06894159073
:1017D000159135916591959105907FE27395E1188A
:1017E000F10A430B560BC90BD009C0F7E10CF11EEF
:1017F000431F561FC91FD01D7EF4703311F48A9504
:10180000E6CFE894015030F0080F0AF400270217E1
:1018100008F4202F2395022F7A3328F079E37D9363
:101820002A95E9F710C07D932A9589F60694979535
:101830006795379517951794E118F10A430B560BE6
:10184000C90BD00998F023957E9173957A3308F0EF
:1018500070E37C932013B8F77E9170617D9330F034
:10186000839571E37D9370E32A95E1F71124EF905E
:10187000FF900F911F91CF91DF91992787FD909550
:101880000895DC01FC01672F71917723E1F732970E
:1018900004C07C916D9370836291AE17BF07C8F34B
:1018A0000895AA1BBB1B51E107C0AA1FBB1FA617A7
:1018B000B70710F0A61BB70B881F991F5A95A9F7F9
:0E18C00080959095BC01CD010895F894FFCF5E
:1018CE00010F0A0502536F20004D6F20004469205E
:1018DE00004D692000446F200046722000536120A5
:1018EE00002E00477574656E20546167005765635E
:1018FE006B6572207374617274005765636B7A65E1
:10190E0069743A20005374756E64656E004D696E8D
:10191E007574656E00576F6368656E546167004C31
:10192E00616D70656E7374C3A4726B653A00536516
:10193E006B756E64656E6F66667365743A0054659A
:10194E006D706572617475726F66667365743A0058
:10195E00575374756E64656E5B305D00574D696EDE
:10196E007574656E5B305D00575374756E64656E8D
:10197E005B315D00574D696E7574656E5B315D0050
:10198E005765726B7461677300576F68656E656E2D
:10199E006465004C616D70656E7374C3A4726B6583
:1019AE00005A6569740053656B756E64656E000050
:00000001FF
