:100000008FC0A9C0A8C0A7C0A6C0A5C0A4C0A3C0D7
:1000100069C7A1C0A0C09FC09EC09DC09CC09BC01E
:100020009AC099C098C000407A10F35A00A0724E4E
:1000300018090010A5D4E80000E87648170000E48D
:100040000B54020000CA9A3B000000E1F5050000D5
:1000500080969800000040420F000000A08601003A
:100060000000102700000000E8030000000064000A
:10007000000000000A000000000001000000000075
:100080002C76D888DC674F0823DFC1DFAE59E1B199
:10009000B796E5E3E453C63AE651997696E8E6C2A8
:1000A0008426EB898C9B62ED407C6FFCEFBC9C9FAF
:1000B00040F2BAA56FA5F490055A2AF75C936B6CD1
:1000C000F9676DC11BFCE0E40D47FEF520E6B500C5
:1000D000D0ED902E0300943577050080841E080033
:1000E00000204E0A000000C80C333333330F986EE3
:1000F00012831141EF8D2114893BE65516CFFEE6A0
:10010000DB18D1844B381BF77C1D901DA4BBE42465
:10011000203284725E228100C9F124ECA1E53D27E2
:1001200011241FBECFE5D4E0DEBFCDBF11E0A0E6B5
:10013000B0E0ECEEF8E102C005900D92A234B107F8
:10014000D9F721E0A2E4B1E001C01D92A636B207C2
:10015000E1F7DDD6C9CB54CFC59A88E18A95F1F78E
:1001600000C0C598089598B3907F98BB98B38295C6
:100170008F70982B98BBF0DF0895CF93C82FC49A47
:10018000F2DF8C2F8295807FEEDF88E38A95F1F78E
:1001900000C0CF910895CF93C82FC498E4DF8C2F6F
:1001A0008295807FE0DF83E38A95F1F700C0CF91ED
:1001B000089581E0F0DF83E397E00197F1F7089578
:1001C00087B38F6387BB88B3807C88BB8FEF95E351
:1001D0000197F1F700C0000080E3C5DF8FEF91E1E8
:1001E0000197F1F700C00000B7DF89E993E00197BC
:1001F000F1F700C0B1DF89E993E00197F1F700C0A2
:1002000080E2B1DF8FEF91E10197F1F700C00000CC
:1002100088E2C1DF8CE0BFDF86E0BDDFCADF089582
:1002200082E0B9DF83E397E00197F1F70895623048
:1002300059F018F4613071F405C0633039F064305E
:1002400049F406C0805805C0805403C0805701C0DF
:100250008053A1DF0895CF93DF93EC018881882339
:1002600029F021968ADF89918111FCCFDF91CF910E
:10027000089597B18F71907E982B97B9369A3699D9
:10028000FECF24B135B1822F932F0895823091F0A3
:1002900028F4882349F08130C1F40AC0843071F019
:1002A00058F0853091F40EC085B3877C85BB0895E6
:1002B000AD9A0895AC9A0895AB9A089585B3886372
:1002C00085BB089585B3806385BB089580916201E5
:1002D0008823A1F0863091F09091600180916301B4
:1002E00098131DC090915E0180916401981317C00E
:1002F00081E080935D0184E0C9DF08959091610100
:100300008091630198130BC090915F01809164010B
:10031000981305C081E080935D0184E0B7DF089504
:10032000CF92DF92EF92FF920F931F93CF93DF93C1
:1003300080E09FDF80E09DDFBC0180E090E02CD773
:1003400020E030E040EA5BE3B5D7062F172FD82F27
:10035000C92F20E030EC48E255E4ACD76B017C01BA
:10036000202F312F4D2F5C2F60E070E080EA90E469
:1003700046D69B01AC01C701B601A6D625E238EAF4
:1003800043E95DE397D76B017C01609162007727B9
:1003900067FD70956E5C7F4F882777FD8095982F5D
:1003A000FDD621ED32E44EE253E429D69B01AC01A7
:1003B000C701B60125D66093580170935901809307
:1003C0005A0190935B01DF91CF911F910F91FF90A4
:1003D000EF90DF90CF9008958091650180935C014C
:1003E0008C3330F19DDF10926501809164018F5F45
:1003F0008C3318F48093640107C0109264018091DB
:1004000063018F5F8093630180916301883180F085
:1004100010926301809162018F5F873018F480939E
:10042000620102C0109262018091570180936501C0
:1004300080915D01811101C049DF08958330B9F0D9
:1004400020F4813061F078F406C08530C1F098F076
:100450008630E1F418C083E690E0FDDE089587E67B
:1004600090E0F9DE08958BE690E0F5DE08958FE6E2
:1004700090E0F1DE089583E790E0EDDE089587E7F0
:1004800090E0E9DE08958BE790E0E5DE08958823AB
:1004900021F0813009F042C01AC04AE050E063E424
:1004A00071E08091630190E088D783E491E0D3DE2E
:1004B00088EC90E0D0DE4AE050E063E471E08091A7
:1004C000640190E07AD783E491E0C5DE08954AE0C4
:1004D00050E063E471E08091630190E06ED783E4C3
:1004E00091E0B9DE88EC90E0B6DE4AE050E063E4EB
:1004F00071E08091640190E060D783E491E0ABDE2D
:1005000088EC90E0A8DE4AE050E063E471E080917E
:10051000650190E052D783E491E09DDE08950F934A
:100520001F93CF93C62F813021F0823009F072C023
:1005300059C03FDE75DEC33011F120F4C13091F0B7
:10054000D0F407C0C53059F100F1C63009F062C0DF
:1005500043C08091620172DF8FE990E07CDE80E031
:1005600096DF58C08091620169DF8FE990E073DE09
:1005700081E08DDF4FC08091620160DF4BC08091D0
:1005800062015CDF81E083DF45C08FE790E063DEDE
:1005900062E080E04CDE89E890E05DDE3BC086E909
:1005A00090E059DE4AE050E063E471E08091600140
:1005B00090E003D783E491E04EDE88EC90E04BDEE0
:1005C0004AE050E063E471E080915E0190E0F5D68E
:1005D00083E491E040DE1EC0809162012FDF80E065
:1005E00056DF18C062E080E022DEC13099F46091ED
:1005F00058017091590180915A0190915B0103E477
:1006000011E022E042E0B9D6C80125DE8FEDB5DD6C
:1006100083E4B3DDCF911F910F910895CF93DF93C2
:10062000E901829925C0EFEFF3EB3197F1F700C0B4
:100630000000EFEFF3E23197F1F700C0000082997C
:1006400017C0FC0120812F5F261710F4208302C001
:10065000FC011082642F81E062DF60E082E05FDFF6
:100660008881882329F0219688DD89918111FCCF2A
:10067000DF91CF9108951F93CF93DF93823009F4D8
:10068000B7C030F4882369F0813009F0F3C165C048
:10069000843009F44BC108F4FAC0853009F0EAC18E
:1006A00097C166E081E03BDF60E082E038DF81EA0D
:1006B00090E0D1DDC0E0839928C08FEF93EB0197E4
:1006C000F1F700C000008FEF93E20197F1F700C04F
:1006D000000083991AC0CF5F6CDD66E081E01FDF08
:1006E00060E082E01CDFC13041F018F0C23069F4F4
:1006F00008C081EA90E0AFDD0EC089EA90E0ABDD92
:1007000013C081EB90E0A7DD18C0C13069F018F08C
:10071000C230E1F412C021EA30E046E06CE383E647
:1007200091E07CDFC0E0C7CF29EA30E046E06CE32F
:1007300084E691E073DFC1E0BECF21EB30E046E01C
:1007400067E082E691E06ADFC2E0B5CFC33008F42B
:10075000B2CF1092650180E0A0C12BDD61DD8BEB93
:1007600090E079DD60E082E0DADE4AE050E063E4C8
:1007700071E08091610090E020D683E491E06BDD30
:100780009091650180915C01981326DE829974C175
:100790008FEF93EB0197F1F700C000008FEF93E22A
:1007A0000197F1F700C00000829968C18091610053
:1007B0008F5F80936100FDDC33DD8BEB90E04BDDE0
:1007C00060E082E0ACDE4AE050E063E471E08091FA
:1007D000610090E0F2D583E491E03DDD809161001D
:1007E000833008F44DC181E08093610080E055C101
:1007F000E0DC16DD8AEC90E02EDD60E082E08FDE4A
:10080000809157014AE050E063E471E0992787FD49
:100810009095D3D583E491E01EDD909165018091A0
:100820005C019813D9DD82992DC18FEF93EB01976D
:10083000F1F700C000008FEF93E20197F1F700C0DD
:100840000000829921C1809157018F5F80935701E9
:10085000B0DCE6DC8AEC90E0FEDC60E082E05FDEAB
:10086000809157014AE050E063E471E0992787FDE9
:100870009095A3D583E491E0EEDC8091570185301B
:100880000CF404C18BEF8093570180E006C191DC2A
:10089000C7DC8AED90E0DFDC60E082E040DE809142
:1008A00062004AE050E063E471E0992787FD90958B
:1008B00084D583E491E0CFDC9091650180915C0167
:1008C00098138ADD8299E4C08FEF93EB0197F1F7DB
:1008D00000C000008FEF93E20197F1F700C0000025
:1008E0008299D8C0809162008F5F8093620061DC42
:1008F00097DC8AED90E0AFDC60E082E010DE809172
:1009000062004AE050E063E471E0992787FD90952A
:1009100054D583E491E09FDC809162008A300CF42E
:10092000BBC086EF8093620080E0B7C065E081E0E5
:10093000F6DD60E082E0F3DD8CEE90E08CDCC0E080
:1009400011E0D0E02091650190915C01291344DD14
:10095000839922C08FEF93EB0197F1F700C000005D
:100960008FEF93E20197F1F700C00000839914C064
:10097000CF5F65E0812FD3DD6D2F82E0D0DDCC230A
:1009800019F0C13049F404C08CEE90E064DC09C079
:1009900088EF90E060DC0EC0CC2319F0C13099F4F0
:1009A00009C02CEE30E045E068E180E691E036DEFB
:1009B000CD2FC8CF28EF30E045E06CE38EE591E025
:1009C0002DDEC12FBFCFC23008F4BCCF80E065C0A0
:1009D00065E081E0A4DD60E082E0A1DD84E091E0FB
:1009E0003ADCC0E011E0D0E02091650190915C011B
:1009F0002913F2DC839922C08FEF93EB0197F1F773
:100A000000C000008FEF93E20197F1F700C00000F3
:100A1000839914C0CF5F65E0812F81DD6D2F82E067
:100A20007EDDCC2319F0C13049F404C084E091E0AC
:100A300012DC09C080E191E00EDC0EC0CC2319F07D
:100A4000C13099F409C024E031E045E068E181E675
:100A500091E0E4DDCD2FC8CF20E131E045E06CE34B
:100A60008FE591E0DBDDC12FBFCFC23008F4BCCFF2
:100A700080E013C081E011C080E00FC080E00DC0B5
:100A800080E00BC080E009C080E007C080E005C0C6
:100A900080E003C080E001C080E0DF91CF911F9132
:100AA000089582E28093640185E08093630110924F
:100AB000650196E0909362018093600183E28093E8
:100AC0005E0197E09093610180935F0184E0D3DD44
:100AD00080E0D1DD81E0809357010895CF9380E0DD
:100AE000C6E0833009F4E5C030F4813009F451C028
:100AF000823039F496C0843009F423C1853009F47A
:100B000070C157DB65E081E00ADD60E082E007DD6F
:100B10008CE191E0A0DB2BC09091650180915C019C
:100B200098135ADC829913C08FEF93EB0197F1F77A
:100B300000C000008FEF93E20197F1F700C00000C2
:100B4000829905C084E097DD8CE191E084DB849993
:100B50000EC08FEF93EB0197F1F700C000008FEF0D
:100B600093E20197F1F700C00000849B8DC1839947
:100B7000D3CF8FEF93EB0197F1F700C000008FEF19
:100B800093E20197F1F700C000008399C5CF81E09F
:100B9000A8CF0FDB65E081E0C2DC60E082E0BFDC73
:100BA00085E291E058DB2BC09091650180915C015A
:100BB000981312DC829913C08FEF93EB0197F1F732
:100BC00000C000008FEF93E20197F1F700C0000032
:100BD000829905C085E04FDD85E291E03CDB849998
:100BE0000EC08FEF93EB0197F1F700C000008FEF7D
:100BF00093E20197F1F700C00000849B45C18399FF
:100C0000D3CF8FEF93EB0197F1F700C000008FEF88
:100C100093E20197F1F700C000008399C5CF82E00D
:100C200060CFC7DA62E081E07ADC60E082E077DC06
:100C30008BEB90E010DB2BC09091650180915C0103
:100C40009813CADB829913C08FEF93EB0197F1F7EA
:100C500000C000008FEF93E20197F1F700C00000A1
:100C6000829905C081E007DD8FE291E0F4DA849992
:100C70000EC08FEF93EB0197F1F700C000008FEFEC
:100C800093E20197F1F700C00000849BFDC08399B7
:100C9000D3CF8FEF93EB0197F1F700C000008FEFF8
:100CA00093E20197F1F700C000008399C5CF83E07C
:100CB00018CF7FDA63E081E032DC60E082E02FDC95
:100CC0008DE391E0C8DA2BC09091650180915C01C1
:100CD000981382DB829913C08FEF93EB0197F1F7A2
:100CE00000C000008FEF93E20197F1F700C0000011
:100CF000829905C080E0BFDC8DE391E0ACDA849995
:100D00000EC08FEF93EB0197F1F700C000008FEF5B
:100D100093E20197F1F700C00000849BB5C083996E
:100D2000D3CF8FEF93EB0197F1F700C000008FEF67
:100D300093E20197F1F700C000008399C5CF84E0EA
:100D4000D0CE37DA6DDA8AEC90E085DA60E082E0C6
:100D5000E6DB809157014AE050E063E471E09927B7
:100D600087FD90952AD383E491E075DA28C09091AD
:100D7000650180915C0198132FDB829910C08FEF81
:100D800093EB0197F1F700C000008FEF93E201971A
:100D9000F1F700C00000829902C082E06CDC849907
:100DA0000EC08FEF93EB0197F1F700C000008FEFBB
:100DB00093E20197F1F700C00000849B65C083991E
:100DC000D6CF8FEF93EB0197F1F700C000008FEFC4
:100DD00093E20197F1F700C000008399C8CF85E046
:100DE00080CEE7D91DDA8AED90E035DA60E082E066
:100DF00096DB809162004AE050E063E471E099275D
:100E000087FD9095DAD283E491E025DA2AC09091AB
:100E1000650180915C019813DFDA829910C08FEF31
:100E200093EB0197F1F700C000008FEF93E2019779
:100E3000F1F700C00000829902C083E01CDC8499B5
:100E400010C08FEF93EB0197F1F700C000008FEF18
:100E500093E20197F1F700C00000849902C060DAC4
:100E600013C08399D4CF8FEF93EB0197F1F700C0B4
:100E700000008FEF93E20197F1F700C00000839923
:100E8000C6CF4EDA8C2F2DCE81E0CF91089580E42D
:100E900087B983E086B9379A369A3699FECF84B1FE
:100EA00095B182B38C6182BB8CE384BBA89A88D94C
:100EB00064E081E034DB2FEF8FED90E12150804042
:100EC0009040E1F700C0000074D9EBDD81EF8DBDEB
:100ED00080EF8CBD84E089BF85E08EBD7894109250
:100EE0005D0108951F920F920FB60F9211248F93F8
:100EF00081EF8DBD80EF8CBD809165018F5F809308
:100F000065018F910F900FBE0F901F901895BFDF56
:100F10009091650180915C019817C9F05DDA80912C
:100F20006000882359F063E081E0F9DA61E082E053
:100F3000F6DA809142018F5F8093420180914201F5
:100F4000883728F01092600010924201AA98829986
:100F500012C08FEF93EB0197F1F700C000008FEF05
:100F600093E20197F1F700C00000829904C010924B
:100F70005D0180E08BD984991EC08FEF93EB0197C0
:100F8000F1F700C000008FEF93E20197F1F700C086
:100F90000000849910C080916000811105C0AA9A58
:100FA00081E08093600007C099DD63E081E0B7DAFB
:100FB00061E082E0B4DA8399ABCF8FEF93EB0197D6
:100FC000F1F700C000008FEF93E20197F1F700C046
:100FD000000083999DCF80916100823031F0833091
:100FE00039F0813039F452D905C085E04FD902C0BB
:100FF00084E04CD9AB9B8CCF80E048D989CF505846
:10100000BB27AA270ED01CC10DD130F012D120F081
:1010100031F49F3F11F41EF402C10EF4E095E7FB9A
:10102000F8C0E92F1ED180F3BA176207730784074F
:10103000950718F071F49EF536C10EF4E0950B2E6D
:10104000BA2FA02D0B01B90190010C01CA01A0011A
:101050001124FF27591B99F0593F50F4503E68F175
:101060001A16F040A22F232F342F4427585FF3CFB6
:10107000469537952795A795F0405395C9F77EF487
:101080001F16BA0B620B730B840BBAF09150A1F0D0
:10109000FF0FBB1F661F771F881FC2F70EC0BA0F56
:1010A000621F731F841F48F4879577956795B795DE
:1010B000F7959E3F08F0B3CF9395880F08F09927D6
:1010C000EE0F9795879508950CD0BAC0B2D040F036
:1010D000A9D030F021F45F3F19F09BC05111E4C05A
:1010E0009EC0BFD098F39923C9F35523B1F3951B44
:1010F000550BBB27AA2762177307840738F09F5F39
:101100005F4F220F331F441FAA1FA9F333D00E2EA7
:101110003AF0E0E830D091505040E695001CCAF714
:1011200029D0FE2F27D0660F771F881FBB1F2617D9
:1011300037074807AB07B0E809F0BB0B802DBF01AC
:10114000FF2793585F4F2AF09E3F510568F061C01A
:10115000ABC05F3FECF3983EDCF3869577956795DF
:10116000B795F7959F5FC9F7880F911D969587955D
:1011700097F90895E1E0660F771F881FBB1F62177C
:1011800073078407BA0720F0621B730B840BBA0B3A
:10119000EE1F88F7E0950895E89409C097FB3EF4A8
:1011A00090958095709561957F4F8F4F9F4F9923B4
:1011B000A9F0F92F96E9BB279395F6958795779532
:1011C0006795B795F111F8CFFAF4BB0F11F460FFF2
:1011D0001BC06F5F7F4F8F4F9F4F16C0882311F04A
:1011E00096E911C0772321F09EE8872F762F05C05E
:1011F000662371F096E8862F70E060E02AF09A95F9
:10120000660F771F881FDAF7880F9695879597F9ED
:10121000089597F99F6780E870E060E008959FEF78
:1012200080EC089500240A9416161706180609067D
:10123000089500240A94121613061406050608954C
:10124000092E0394000C11F4882352F0BB0F40F4D4
:10125000BF2B11F460FF04C06F5F7F4F8F4F9F4F14
:10126000089557FD9058440F551F59F05F3F71F096
:101270004795880F97FB991F61F09F3F79F08795FD
:101280000895121613061406551FF2CF4695F1DF86
:1012900008C0161617061806991FF1CF8695710516
:1012A000610508940895E894BB2766277727CB014A
:1012B00097F908950BD0C4CFB5DF28F0BADF18F046
:1012C000952309F0A6CFABCF1124EECFCADFA0F350
:1012D000959FD1F3950F50E0551F629FF001729FCB
:1012E000BB27F00DB11D639FAA27F00DB11DAA1FEA
:1012F000649F6627B00DA11D661F829F2227B00D37
:10130000A11D621F739FB00DA11D621F839FA00DC1
:10131000611D221F749F3327A00D611D231F849F11
:10132000600D211D822F762F6A2F11249F57504068
:101330008AF0E1F088234AF0EE0FFF1FBB1F661F03
:10134000771F881F91505040A9F79E3F510570F0BC
:1013500060CFAACF5F3FECF3983EDCF3869577959C
:101360006795B795F795E7959F5FC1F7FE2B880FB7
:10137000911D9695879597F90895EF920F931F9376
:10138000CF93C02F47FF02C034E101C034E0E42F07
:10139000FF27E7FDF095F7FF03C0F195E195F1090F
:1013A000E32E022F2E2F4C2F512F26D08C2F912F32
:1013B000CF911F910F91EF900895FB019F01E89449
:1013C0004230BCF04532ACF44A3029F497FB1EF4AD
:1013D000909581959F4F642F772772D2805D8A33D5
:1013E0000CF0895D8193CB010097A9F716F45DE2BB
:1013F00051931082C90154C26F927F929F92AF9213
:10140000BF92CF92DF92EF92FF920F931F93CF93F1
:10141000DF93CDB7DEB729970FB6F894DEBF0FBEC6
:10142000CDBF6A01B22E102F0C3318F4F02EF394B6
:1014300002C05CE3F52E0F2D27E0AE014F5F5F4F3A
:1014400057D17981272F2970213031F0E1FC06C076
:10145000E0FE06C060E205C06DE203C06BE201C0C1
:1014600060E073FF3DC0662311F084E001C083E0BB
:101470008B1510F4B81A01C0B12CE4FC0BC08B2DF5
:10148000F60190E202C0919381508111FCCFCB0C08
:10149000D11CB12C662319F0D6016D936D01E2FECB
:1014A0000AC08EE4F601808391E491838283F3E0A5
:1014B000CF0ED11C0CC08EE6D6018C9391E611960E
:1014C0009C93119712968C93B3E0CB0ED11C8B2D6D
:1014D000F60190E202C0919381508111FCCF40C08F
:1014E00072FF45C0662311F084E001C083E08B15D4
:1014F00010F4B81A01C0B12CE4FC0BC08B2DF6011E
:1015000090E202C0919381508111FCCFCB0CD11C91
:10151000B12C662319F0F60161936F01E2FE0EC053
:1015200089E4D6018C938EE411968C93119786E40E
:1015300012968C93B3E0CB0ED11C0AC089E6F6015B
:1015400080838EE6818386E68283F3E0CF0ED11C12
:101550008B2DF60190E202C0919381508111FCCF56
:10156000F601EB0DF11D10822EEF3FEFACC0A1E0B4
:10157000611101C0A0E04A2F50E01816190624F4AA
:101580009C012F5F3F4F02C021E030E0240F351F48
:10159000112329F0412F50E04F5F5F4F02C040E020
:1015A00050E0420F531F2B2D30E04217530714F425
:1015B000B41A01C0B12C3E2D3071E4FC0DC0E3FC27
:1015C0000BC02B2DF60140E202C0419321502111A6
:1015D000FCCFCB0CD11CB12CAA2319F0D6016D93F2
:1015E0006D0131110BC02B2DF60130E302C0319398
:1015F00021502111FCCFCB0CD11CB12CF80E0A814B
:1016000040E1A42EA72274FF03C0013309F4FA9429
:101610001F142CF42F2D293018F028E001C021E0F0
:10162000AC0197FF02C040E050E060E070E03EE2B5
:10163000932EFC01E21BF1099F01DC01A41BB50BF9
:10164000FE013196EA0FFB1FA12FB0E0662477243C
:101650006A1A7B0A4F3F1FEF510719F4D6019D927A
:101660006D018417950754F0241735073CF47F016A
:10167000E60EF71ED70111961C9101C010E34150F0
:1016800051096F5F7F4F4615570524F0D6011D9312
:101690006D01E0CF4817590739F4063320F40533BC
:1016A00019F4A11001C011E3F60111938B2DDF0194
:1016B00090E202C09D9381508111FCCFEB0DF11D92
:1016C000108220E030E0C90129960FB6F894DEBF01
:1016D0000FBECDBFDF91CF911F910F91FF90EF9083
:1016E000DF90CF90BF90AF909F907F906F900895C4
:1016F000283008F027E03327DA01990F311D87FDE4
:10170000916000966105710539F432602E5F3D935A
:1017100030E32A95E1F708959F3F30F08038710556
:10172000610509F03C5F3C5F3D93913008F08068B3
:10173000911DDF93CF931F930F93FF92EF92192F79
:10174000987F9695E92F96959695E90FFF27E05893
:10175000FF4F99273327EE24FF24A701E7010590C7
:101760000894079428F4360FE71EF81E491F511DF0
:10177000660F771F881F991F0694A1F7059007949D
:1017800028F4E70EF81E491F561FC11D770F881F4A
:10179000991F661F0694A1F70590079428F4F80E88
:1017A000491F561FC71FD11D880F991F661F771F1E
:1017B0000694A1F70590079420F4490F561FC71F00
:1017C000D81F990F661F771F881F0694A9F7849169
:1017D0001095177041F0D695C79557954795F79492
:1017E000E7941A95C1F7E6E2F0E068941590159138
:1017F00035916591959105907FE27395E118F10A15
:10180000430B560BC90BD009C0F7E10CF11E431F67
:10181000561FC91FD01D7EF4703311F48A95E6CF90
:10182000E894015030F0080F0AF40027021708F47A
:10183000202F2395022F7A3328F079E37D932A9580
:10184000E9F710C07D932A9589F6069497956795D8
:10185000379517951794E118F10A430B560BC90BEE
:10186000D00998F023957E9173957A3308F070E350
:101870007C932013B8F77E9170617D9330F083954F
:1018800071E37D9370E32A95E1F71124EF90FF90C7
:101890000F911F91CF91DF91992787FD9095089522
:1018A000DC01FC01672F71917723E1F7329704C0C7
:1018B0007C916D9370836291AE17BF07C8F3089552
:1018C000AA1BBB1B51E107C0AA1FBB1FA617B70766
:1018D00010F0A61BB70B881F991F5A95A9F7809582
:0C18E0009095BC01CD010895F894FFCF55
:1018EC00010102536F20004D6F2000446920004D10
:1018FC00692000446F20004672200053612000478D
:10190C007574656E20546167005765636B65722052
:10191C007374617274005765636B7A6569743A20ED
:10192C00005374756E64656E004D696E7574656EEA
:10193C0000576F6368656E546167004C616D70652C
:10194C006E7374C3A4726B653A0053656B756E64E9
:10195C00656E6F66667365743A0054656D7065727A
:10196C00617475726F66667365743A00575374755B
:10197C006E64656E5B305D00574D696E7574656E97
:10198C005B305D00575374756E64656E5B315D0042
:10199C00574D696E7574656E5B315D005765726B82
:1019AC007461677300576F68656E656E6465004C93
:1019BC00616D70656E7374C3A4726B65005A656952
:0219CC007400A5
:00000001FF
