:100000001AC034C033C032C031C030C02FC02EC07F
:1000100048C91AC92BC02AC029C028C027C026C079
:1000200025C024C023C0C5C2CDC2D5C2D8C2DDC23E
:10003000E6C202C307C311241FBECFE5D4E0DEBF72
:10004000CDBF11E0A0E6B0E0EEE6F9E102C0059018
:100050000D92AE34B107D9F721E0AEE4B1E001C0B2
:100060001D92A737B207E1F731D97FCCC9CFC59A26
:1000700088E18A95F1F700C0C598089598B3907FFC
:1000800098BB98B382958F70982B98BBF0DF08953A
:10009000CF93C82FC49AF2DF8C2F8295807FEEDF3A
:1000A00088E38A95F1F700C0CF910895CF93C82FC8
:1000B000C498E4DF8C2F8295807FE0DF83E38A950C
:1000C000F1F700C0CF91089581E0F0DF83E397E07E
:1000D0000197F1F7089587B38F6387BB88B3807C5E
:1000E00088BB8FEF95E30197F1F700C0000080E334
:1000F000C5DF8FEF91E10197F1F700C00000B7DF96
:1001000089E993E00197F1F700C0B1DF89E993E055
:100110000197F1F700C080E2B1DF8FEF91E1019725
:10012000F1F700C0000088E2C1DF8CE0BFDF86E0AD
:10013000BDDFCADF089582E0B9DF83E397E001976E
:10014000F1F70895623059F018F4613071F405C088
:10015000633039F0643049F406C0805805C08054DB
:1001600003C0805701C08053A1DF0895CF93DF9370
:10017000EC018881882329F021968ADF89918111F9
:10018000FCCFDF91CF91089597B18F71907E982B1E
:1001900097B9369A3699FECF24B135B1822F932F75
:1001A0000895823091F028F4882349F08130C1F419
:1001B0000AC0843071F058F0853091F40EC085B3D8
:1001C000877C85BB0895AD9A0895AC9A0895AB9A43
:1001D000089585B3886385BB089585B3806385BB27
:1001E000089580917301882399F1863089F1809177
:1001F0006A01811111C090916E0180917401981370
:1002000056C090916D0180917501981350C081E0A6
:1002100080936A0184E0C5DF80916A01813009F032
:1002200046C09091710180917401981340C09091E3
:100230006F018091750198133AC082E080936A0142
:100240008CED82BF89B7816089BF83E083BF089549
:1002500080916A01811111C090916C0180917401AB
:10026000981325C090916B018091750198131FC060
:1002700081E080936A0184E094DF80916A0181309B
:10028000B1F49091720180917401981310C0909113
:1002900070018091750198130AC082E080936A0111
:1002A0008CED82BF89B7816089BF83E083BF0895E9
:1002B0008F929F92AF92BF92CF92DF92EF92FF9276
:1002C000CF93DF93CDB7DEB72A970FB6F894DEBF92
:1002D0000FBECDBF80E058DF80E056DF7C0180E0BC
:1002E00053DF8E0D9F1DBC0180E090E00ADA20E014
:1002F00030E040E05FE393DAD8D97A87698769858F
:100300007A8580E090E0FDD92AE038E240EA5BE3BC
:1003100086DA462F572F682F792F4D835E836F83A0
:1003200078876D817E818F8198858D809E80AF805A
:10033000B88420E030E44EE455E471DA6B017C01CE
:10034000A501940160E070E080EA90E4DCD89B01B4
:10035000AC01C701B6013CD9462F572F682F792F22
:1003600049835A836B837C8369817A818B819C81E9
:1003700025E238EA43E95DE352DA6B017C016091E2
:100380006301772767FD70956E5C7F4F882777FD47
:100390008095982FB8D921ED32E44EE253E4B3D8DA
:1003A0009B01AC01C701B601AFD8C62ED72EE82EEF
:1003B000F92E20E030E040E251E431DA71D987E6ED
:1003C0006802812D11248595859567FD8395880F99
:1003D000982F990F990F890F681B65306CF48C2D3D
:1003E0009D2DAE2DBF2D8093650190936601A09346
:1003F0006701B093680111C020E030E040E85FE39E
:100400006C2D7D2D8E2D9F2D7FD86093650170936F
:10041000660180936701909368012A960FB6F8945D
:10042000DEBF0FBECDBFDF91CF91FF90EF90DF9089
:10043000CF90BF90AF909F908F900895809176015C
:10044000809369018C3358F133DF109276018091EB
:1004500075018F5F8C3318F48093750107C010927B
:100460007501809174018F5F809374018091740194
:100470008831A8F010927401809173018F5F8730EA
:1004800018F48093730102C01092730180916A0185
:10049000811110926A0180916401809376018091AC
:1004A0006A01833009F09DDE08958330B9F020F4AD
:1004B000813061F078F406C08530C1F098F0863064
:1004C000E1F418C082E690E051DE089586E690E0FF
:1004D0004DDE08958AE690E049DE08958EE690E0CC
:1004E00045DE089582E790E041DE089586E790E0DA
:1004F0003DDE08958AE790E039DE0895882321F0F3
:10050000813009F042C01AC04AE050E06FE471E067
:100510008091740190E0E6D98FE491E027DE8CECC5
:1005200090E024DE4AE050E06FE471E080917501D4
:1005300090E0D8D98FE491E019DE08954AE050E0C8
:100540006FE471E08091740190E0CCD98FE491E088
:100550000DDE8CEC90E00ADE4AE050E06FE471E0E2
:100560008091750190E0BED98FE491E0FFDD8CECC5
:1005700090E0FCDD4AE050E06FE471E080917601AC
:1005800090E0B0D98FE491E0F1DD0895CF93C62FCC
:10059000813021F0823009F0A4C071C095DDCBDD3F
:1005A000EC2FF0E0E830F10508F09BC0ED5EFF4F66
:1005B00009948091730179DF8DE990E0D7DD80E0C7
:1005C0009DDF8FC08091730170DF8DE990E0CEDDFB
:1005D00081E094DF86C08091730167DF82C08091E3
:1005E000730163DF81E08ADF7CC08EE790E0BEDDCF
:1005F00062E080E0A7DD88E890E0B8DD72C084E9C1
:1006000090E0B4DD4AE050E06FE471E08091710168
:1006100090E068D98FE491E0A9DD8CEC90E0A6DD54
:100620004AE050E06FE471E080916F0190E05AD9A8
:100630008FE491E09BDD55C08091730136DF80E04F
:100640005DDF4FC084E990E091DD4AE050E06FE467
:1006500071E08091720190E045D98FE491E086DDF0
:100660008CEC90E083DD4AE050E06FE471E0809133
:10067000700190E037D98FE491E078DD32C062E01C
:1006800080E060DDC13069F56091650170916601BF
:10069000809167019091680103D8862F4AE050E06D
:1006A0006FE471E0992787FD90951CD98FE491E064
:1006B0005DDD8FEDEDDC83E4EBDC80916A01815040
:1006C000823038F461E08CE03DDD8FE990E04EDD72
:1006D00008C0AD9B06C061E08CE034DD82EA90E0AA
:1006E00045DDCF910895CF93DF93E901829931C021
:1006F000EFEFF3EB3197F1F700C00000EFEFF3E21B
:100700003197F1F700C00000829B23C0EFEFF3EBBD
:100710003197F1F700C00000EFEFF3E23197F1F706
:1007200000C00000FC0120812F5F261710F42083F9
:1007300002C0FC011082642F81E028DF60E082E0CB
:1007400025DF8881882329F02196A2DC89918111F7
:10075000FCCFDF91CF9108951F93CF93DF93823029
:1007600009F49EC030F4882369F0813009F0DAC1C1
:1007700071C0843009F4E4C008F4BAC0853009F0CF
:10078000D1C157C166E081E001DF60E082E0FEDEBA
:1007900085EA90E0EBDCC0E0839934C08FEF93EB07
:1007A0000197F1F700C000008FEF93E20197F1F796
:1007B00000C00000839B26C08FEF93EB0197F1F7F9
:1007C00000C000008FEF93E20197F1F700C0000036
:1007D000CF5F7ADC66E081E0D9DE60E082E0D6DEE1
:1007E000C13041F018F0C23069F408C085EA90E0E9
:1007F000BDDC0EC08DEA90E0B9DC13C085EB90E063
:10080000B5DC18C0C13069F018F0C230E1F412C094
:1008100025EA30E046E068E184E791E064DFC0E08B
:10082000BBCF2DEA30E046E06CE385E791E05BDF8B
:10083000C1E0B2CF25EB30E046E067E083E791E02E
:1008400052DFC2E0A9CFC33008F4A6CF10927601E0
:1008500080E069C190917601809169019813EEDD85
:10086000809161008F5F843018F48093610003C031
:1008700081E08093610028DC5EDC8FEB90E076DC29
:1008800060E082E083DE4AE050E06FE471E0809156
:10089000610090E027D88FE491E068DC80E043C1FC
:1008A00090917601809169019813C8DD809164016F
:1008B0008F5F86301CF48093640103C08BEF8093BC
:1008C000640102DC38DC8EEC90E050DC60E082E019
:1008D0005DDE809164014AE050E06FE471E09927A9
:1008E00087FD9095FFD78FE491E040DC80E01BC14D
:1008F00090917601809169019813A0DD8091630148
:100900008F5F8B301CF48093630103C086EF80936C
:100910006301DADB10DC8EED90E028DC60E082E041
:1009200035DE809163014AE050E06FE471E0992781
:1009300087FD9095D7D78FE491E018DC80E0F3C075
:1009400065E081E023DE60E082E020DE80EF90E081
:100950000DDCC0E011E0D0E02091760190916901BA
:1009600029136CDD83992EC08FEF93EB0197F1F77C
:1009700000C000008FEF93E20197F1F700C0000084
:10098000839B20C08FEF93EB0197F1F700C000002D
:100990008FEF93E20197F1F700C00000CF5F65E0B1
:1009A000812FF4DD6D2F82E0F1DDCC2319F0C13011
:1009B00049F404C080EF90E0D9DB09C08CEF90E0EF
:1009C000D5DB0EC0CC2319F0C13099F409C020EF5B
:1009D00030E045E068E181E791E085DECD2FBCCFD6
:1009E0002CEF30E045E06CE38FE691E07CDEC12F38
:1009F000B3CFC23008F4B0CF20916F01822F8A505C
:100A000080936D019091710190936E018C3368F029
:100A10002E5C20936D01892F8150883118F48093CA
:100A20006E0103C0995E90936E0110926A0180E09E
:100A30007AC067E081E0AADD60E082E0A7DD88E0BF
:100A400091E094DBC0E011E0D0E02091760190913C
:100A500069012913F3DC83992EC08FEF93EB019783
:100A6000F1F700C000008FEF93E20197F1F700C0AB
:100A70000000839B20C08FEF93EB0197F1F700C03C
:100A800000008FEF93E20197F1F700C00000CF5F05
:100A900067E0812F7BDD6D2F82E078DDCC2319F0BC
:100AA000C13049F404C088E091E060DB09C084E112
:100AB00091E05CDB0EC0CC2319F0C13099F409C081
:100AC00028E031E047E068E182E791E00CDECD2FDD
:100AD000BCCF24E131E047E06CE380E791E003DE46
:100AE000C12FB3CFC23008F4B0CF20917001822F54
:100AF0008A5080936B019091720190936C018C33BA
:100B000068F02E5C20936B01892F8150883118F496
:100B100080936C0103C0995E90936C0110926A01FE
:100B200080E001C081E0DF91CF911F91089582E2C2
:100B30008093750185E0809374011092760196E0B0
:100B400090937301809371018DE280936F0197E020
:100B5000909372018093700184E0FEDD80E0FCDD03
:100B600081E0809364010895CF93DF9380E0D6E025
:100B7000C7E0833009F44CC130F4813009F473C00C
:100B8000823049F4D8C0853009F41AC208F4A8C1EB
:100B9000863009F487C298DA65E081E0F7DC60E02E
:100BA00082E0F4DC80E291E0E1DA3FC047DC829948
:100BB0001FC08FEF93EB0197F1F700C000008FEF9C
:100BC00093E20197F1F700C00000829B11C08FEF04
:100BD00093EB0197F1F700C000008FEF93E20197CC
:100BE000F1F700C0000084E0B7DD80E291E0BEDAFA
:100BF00084991BC08FEF93EB0197F1F700C00000C1
:100C00008FEF93E20197F1F700C00000849B0DC0C5
:100C10008FEF93EB0197F1F700C000008FEF93E2A5
:100C20000197F1F700C00000DAC28399A4C28FEFE8
:100C300093EB0197F1F700C000008FEF93E201976B
:100C4000F1F700C00000839B96C28FEF93EB0197F2
:100C5000F1F700C000008FEF93E20197F1F700C0B9
:100C6000000081E086CF30DA6C2F81E08FDC60E01D
:100C700082E08CDC89E291E079DA3FC0DFDB8299A7
:100C80001FC08FEF93EB0197F1F700C000008FEFCB
:100C900093E20197F1F700C00000829B11C08FEF33
:100CA00093EB0197F1F700C000008FEF93E20197FB
:100CB000F1F700C0000085E04FDD89E291E056DAEF
:100CC00084991BC08FEF93EB0197F1F700C00000F0
:100CD0008FEF93E20197F1F700C00000849B0DC0F5
:100CE0008FEF93EB0197F1F700C000008FEF93E2D5
:100CF0000197F1F700C0000072C2839943C28FEFE1
:100D000093EB0197F1F700C000008FEF93E201979A
:100D1000F1F700C00000839B35C28FEF93EB019782
:100D2000F1F700C000008FEF93E20197F1F700C0E8
:100D3000000082E01ECFC8D98FEB90E017DA60E0A8
:100D400082E024DC4AE050E06FE471E080916100D1
:100D500090E0C8D58FE491E009DA3CC06FDB82995E
:100D60001CC08FEF93EB0197F1F700C000008FEFED
:100D700093E20197F1F700C00000829B0EC08FEF55
:100D800093EB0197F1F700C000008FEF93E201971A
:100D9000F1F700C0000081E0DFDC84991BC08FEF19
:100DA00093EB0197F1F700C000008FEF93E20197FA
:100DB000F1F700C00000849B0DC08FEF93EB01970B
:100DC000F1F700C000008FEF93E20197F1F700C048
:100DD000000005C28399DDC18FEF93EB0197F1F716
:100DE00000C000008FEF93E20197F1F700C0000010
:100DF000839BCFC18FEF93EB0197F1F700C0000009
:100E00008FEF93E20197F1F700C0000083E0B1CECD
:100E10005BD963E081E0BADB60E082E0B7DB83E3CB
:100E200091E0A4D93FC00ADB82991FC08FEF93EBFA
:100E30000197F1F700C000008FEF93E20197F1F7FF
:100E400000C00000829B11C08FEF93EB0197F1F778
:100E500000C000008FEF93E20197F1F700C000009F
:100E600080E07ADC83E391E081D984991BC08FEF25
:100E700093EB0197F1F700C000008FEF93E2019729
:100E8000F1F700C00000849B0DC08FEF93EB01973A
:100E9000F1F700C000008FEF93E20197F1F700C077
:100EA00000009DC183997CC18FEF93EB0197F1F70F
:100EB00000C000008FEF93E20197F1F700C000003F
:100EC000839B6EC18FEF93EB0197F1F700C0000099
:100ED0008FEF93E20197F1F700C0000084E049CE64
:100EE000F3D829D98EEC90E041D960E082E04EDB66
:100EF000809164014AE050E06FE471E0992787FD3A
:100F00009095F0D48FE491E031D93CC097DA829982
:100F10001CC08FEF93EB0197F1F700C000008FEF3B
:100F200093E20197F1F700C00000829B0EC08FEFA3
:100F300093EB0197F1F700C000008FEF93E2019768
:100F4000F1F700C0000082E007DC84991BC08FEF3E
:100F500093EB0197F1F700C000008FEF93E2019748
:100F6000F1F700C00000849B0DC08FEF93EB019759
:100F7000F1F700C000008FEF93E20197F1F700C096
:100F800000002DC1839913C18FEF93EB0197F1F707
:100F900000C000008FEF93E20197F1F700C000005E
:100FA000839B05C18FEF93EB0197F1F700C0000021
:100FB0008FEF93E20197F1F700C0000085E0D9CDF3
:100FC00083D8B9D88EED90E0D1D860E082E0DEDA47
:100FD000809163014AE050E06FE471E0992787FD5A
:100FE000909580D48FE491E0C1D83DC027DA8299F2
:100FF0001CC08FEF93EB0197F1F700C000008FEF5B
:1010000093E20197F1F700C00000829B0EC08FEFC2
:1010100093EB0197F1F700C000008FEF93E2019787
:10102000F1F700C0000083E097DB84991CC08FEFCC
:1010300093EB0197F1F700C000008FEF93E2019767
:10104000F1F700C00000849B0EC08FEF93EB019777
:10105000F1F700C000008FEF93E20197F1F700C0B5
:10106000000026D9BCC08399A9C08FEF93EB0197EC
:10107000F1F700C000008FEF93E20197F1F700C095
:101080000000839B9BC08FEF93EB0197F1F700C0AB
:1010900000008FEF93E20197F1F700C0000008D93C
:1010A0008D2F67CD11D847D888E391E05FD860E0F5
:1010B00082E06CDA80E491E059D83FC0BFD98299D0
:1010C00084C08FEF93EB0197F1F700C000008FEF22
:1010D00093E20197F1F700C00000829B76C08FEF8A
:1010E00093EB0197F1F700C000008FEF93E20197B7
:1010F000F1F700C000001092600010924E01E4D79A
:10110000AA986DC08FEF93EB0197F1F700C0000034
:101110008FEF93E20197F1F700C00000849B0DC0B0
:101120008FEF93EB0197F1F700C000008FEF93E290
:101130000197F1F700C0000052C0839949C08FEFBA
:1011400093EB0197F1F700C000008FEF93E2019756
:10115000F1F700C00000839B3BC08FEF93EB01973A
:10116000F1F700C000008FEF93E20197F1F700C0A4
:1011700000008C2FFECC909176018091690198132C
:1011800015CD15CD9091760180916901981376CD9A
:1011900076CD90917601809169019813DFCDDFCDF6
:1011A000909176018091690198133DCE3DCE90914A
:1011B0007601809169019813A9CEA9CE909176010C
:1011C00080916901981312CF12CF8499B6CF9ACF2C
:1011D0009091760180916901981370CF70CF81E072
:1011E000DF91CF91089580E487B983E086B9379A7B
:1011F000369A3699FECF84B195B182B38C6182BBA9
:101200008EE384BB85B38E6385BB85B3817C85BB50
:1012100062D764E081E0BAD92FEF8FED90E12150E1
:1012200080409040E1F700C000004ED780DC81EFA5
:101230008DBD80EF8CBD89B7846089BF85E08EBD90
:10124000789410926A0108951F920F920FB60F9230
:1012500011242F933F934F935F936F937F938F93BB
:101260009F93AF93BF93EF93FF938CED82BFA999A8
:1012700004C083E096D7A99A03C080E092D7A998CA
:10128000FF91EF91BF91AF919F918F917F916F915E
:101290005F914F913F912F910F900FBE0F901F9034
:1012A00018951F920F920FB60F9211248F9381EF12
:1012B0008DBD80EF8CBD809176018F5F809376012C
:1012C0008F910F900FBE0F901F9018958CDFC2E783
:1012D000D1E00F2EF0E7EF2EF1E0FF2EF02D01E729
:1012E00011E00F2EFFE6CF2EF1E0DF2EF02D9091D2
:1012F000760180916901981741F1A0D88091600032
:101300008823C9F063E081E041D961E082E03ED901
:1013100080916A01813079F48091600081110BC065
:10132000AA9AD9D663E081E031D961E082E02ED972
:1013300081E08093600080914E01883730F01092F8
:10134000600010924E01C0D6AA9880916A01982F31
:101350009150923030F5829950C08FEF93EB019706
:10136000F1F700C00000EFEFF3E23197F1F700C0B2
:101370000000829B42C08FEF93EB0197F1F700C012
:101380000000EFEFF3E23197F1F700C00000109298
:101390004E0183E080936A0180E003D713BEA998D1
:1013A0002CC0833051F5809173018823A9F08630D9
:1013B00099F0F80190818091740198131EC02091DA
:1013C000750130E0F601808190E001962817390719
:1013D000A1F410926A0111C0988180917401981350
:1013E0000CC02091750130E0F701808190E00196FA
:1013F0002817390711F410926A01849935C08FEFCC
:1014000093EB0197F1F700C00000EFEFF3E23197A3
:10141000F1F700C00000849B27C08FEF93EB01978A
:10142000F1F700C00000EFEFF3E23197F1F700C0F1
:10143000000080916A018130B9F0823009F050C01B
:1014400013C0AA9A48D663E081E0A0D861E082E0A8
:101450009DD881E08093600007C086DB63E081E077
:1014600095D861E082E092D8839941CF8FEF93EBDA
:101470000197F1F700C00000EFEFF3E23197F1F7C9
:1014800000C00000839B33CF8FEF93EB0197F1F700
:1014900000C00000EFEFF3E23197F1F700C0000069
:1014A00080916A01813009F422CF823001F51FCF8B
:1014B000AD9B03C080E075D61ACF81E072D617CFFE
:1014C000AD9B03C080E06DD612CF85E06AD60FCF0A
:1014D000AD9B03C080E065D60ACF84E062D607CF1B
:1014E00010924E01809160008111B7CFAACF109267
:1014F0004E0180916100823019F3833049F38130CD
:1015000009F0F5CED5CF5058BB27AA270ED04DC134
:101510003ED130F043D120F031F49F3F11F41EF45E
:1015200033C10EF4E095E7FB29C1E92F4FD180F3D9
:10153000BA17620773078407950718F071F49EF5D0
:1015400067C10EF4E0950B2EBA2FA02D0B01B90147
:1015500090010C01CA01A0011124FF27591B99F029
:10156000593F50F4503E68F11A16F040A22F232F35
:10157000342F4427585FF3CF469537952795A79585
:10158000F0405395C9F77EF41F16BA0B620B730B2C
:10159000840BBAF09150A1F0FF0FBB1F661F771F9D
:1015A000881FC2F70EC0BA0F621F731F841F48F452
:1015B000879577956795B795F7959E3F08F0B3CFD8
:1015C0009395880F08F09927EE0F979587950895C2
:1015D0000CD0EBC0E3D040F0DAD030F021F45F3F24
:1015E00019F0CCC0511115C1CFC0F0D098F3992398
:1015F000C9F35523B1F3951B550BBB27AA276217D7
:101600007307840738F09F5F5F4F220F331F441F1B
:10161000AA1FA9F333D00E2E3AF0E0E830D0915053
:101620005040E695001CCAF729D0FE2F27D0660F40
:10163000771F881FBB1F261737074807AB07B0E87F
:1016400009F0BB0B802DBF01FF2793585F4F2AF095
:101650009E3F510568F092C0DCC05F3FECF3983EBE
:10166000DCF3869577956795B795F7959F5FC9F7F2
:10167000880F911D9695879597F90895E1E0660F7B
:10168000771F881FBB1F621773078407BA0720F0F4
:10169000621B730B840BBA0BEE1F88F7E09508955D
:1016A00004D06894B111B5C0089598D088F09F57C0
:1016B00090F0B92F9927B751A0F0D1F0660F771F9E
:1016C000881F991F1AF0BA95C9F712C0B13081F07E
:1016D0009FD0B1E008959CC0672F782F8827B85F0E
:1016E00039F0B93FCCF3869577956795B395D9F7DF
:1016F0003EF490958095709561957F4F8F4F9F4FE9
:101700000895E89409C097FB3EF4909580957095F4
:1017100061957F4F8F4F9F4F9923A9F0F92F96E93D
:10172000BB279395F695879577956795B795F111B2
:10173000F8CFFAF4BB0F11F460FF1BC06F5F7F4F4F
:101740008F4F9F4F16C0882311F096E911C0772361
:1017500021F09EE8872F762F05C0662371F096E86A
:10176000862F70E060E02AF09A95660F771F881F39
:10177000DAF7880F9695879597F9089597F99F67F7
:1017800080E870E060E008959FEF80EC0895002409
:101790000A941616170618060906089500240A94D6
:1017A00012161306140605060895092E0394000C5C
:1017B00011F4882352F0BB0F40F4BF2B11F460FFEB
:1017C00004C06F5F7F4F8F4F9F4F089557FD905814
:1017D000440F551F59F05F3F71F04795880F97FBF5
:1017E000991F61F09F3F79F08795089512161306AF
:1017F0001406551FF2CF4695F1DF08C016161706DE
:101800001806991FF1CF8695710561050894089512
:10181000E894BB2766277727CB0197F908950BD06B
:10182000C4CFB5DF28F0BADF18F0952309F0A6CFB2
:10183000ABCF1124EECFCADFA0F3959FD1F3950F64
:1018400050E0551F629FF001729FBB27F00DB11D44
:10185000639FAA27F00DB11DAA1F649F6627B00DD4
:10186000A11D661F829F2227B00DA11D621F739FBD
:10187000B00DA11D621F839FA00D611D221F749FCB
:101880003327A00D611D231F849F600D211D822F12
:10189000762F6A2F11249F5750408AF0E1F0882359
:1018A0004AF0EE0FFF1FBB1F661F771F881F915066
:1018B0005040A9F79E3F510570F060CFAACF5F3F1F
:1018C000ECF3983EDCF3869577956795B795F79599
:1018D000E7959F5FC1F7FE2B880F911D9695879521
:1018E00097F90895FB019F01E8944230BCF045321E
:1018F000ACF44A3029F497FB1EF4909581959F4FE4
:10190000642F77271ED0805D8A330CF0895D819328
:10191000CB010097A9F716F45DE251931082C9013B
:1019200000C0DC01FC01672F71917723E1F732974A
:1019300004C07C916D9370836291AE17BF07C8F3AA
:101940000895AA1BBB1B51E107C0AA1FBB1FA61706
:10195000B70710F0A61BB70B881F991F5A95A9F758
:0E19600080959095BC01CD010895F894FFCFBD
:10196E000103536F20004D6F2000446920004D6924
:10197E002000446F200046722000536120004775FE
:10198E0074656E205461670056657273696F6E20C0
:10199E00322E38005765636B7A6569743A200057AA
:1019AE0065004C69005374756E64656E004D696E0A
:1019BE007574656E00576F6368656E546167004C91
:1019CE00616D70656E73746165726B653A00536517
:1019DE006B756E64656E6F66667365743A005465FA
:1019EE006D706572617475726F66667365743A00B8
:1019FE00575374756E64656E5B305D00574D696E3E
:101A0E007574656E5B305D00575374756E64656EEC
:101A1E005B315D00574D696E7574656E5B315D00AF
:101A2E005765726B7461677300576F68656E656E8C
:101A3E006465005A65697400446973706C6179005D
:0E1A4E00617573736368616C74656E3F0000B0
:00000001FF
