:100000008FC0A9C0A8C0A7C0A6C0A5C0A4C0A3C0D7
:100010005DC3A1C0A0C09FC09EC09DC09CC09BC02E
:100020009AC099C098C000407A10F35A00A0724E4E
:1000300018090010A5D4E80000E87648170000E48D
:100040000B54020000CA9A3B000000E1F5050000D5
:1000500080969800000040420F000000A08601003A
:100060000000102700000000E8030000000064000A
:10007000000000000A000000000001000000000075
:100080002C76D888DC674F0823DFC1DFAE59E1B199
:10009000B796E5E3E453C63AE651997696E8E6C2A8
:1000A0008426EB898C9B62ED407C6FFCEFBC9C9FAF
:1000B00040F2BAA56FA5F490055A2AF75C936B6CD1
:1000C000F9676DC11BFCE0E40D47FEF520E6B500C5
:1000D000D0ED902E0300943577050080841E080033
:1000E00000204E0A000000C80C333333330F986EE3
:1000F00012831141EF8D2114893BE65516CFFEE6A0
:10010000DB18D1844B381BF77C1D901DA4BBE42465
:10011000203284725E228100C9F124ECA1E53D27E2
:1001200011241FBECFE5D4E0DEBFCDBF10E0A0E6B6
:10013000B0E0E4E1F0E102C005900D92A23BB1070E
:10014000D9F720E0A2EBB0E001C01D92AF3BB207AF
:10015000E1F7D1D25DC754CFC59A88E18A95F1F70E
:1001600000C0C598089598B3907F98BB98B38295C6
:100170008F70982B98BBF0DF0895CF93C82FC49A47
:10018000F2DF8C2F8295807FEEDF88E38A95F1F78E
:1001900000C0CF910895CF93C82FC498E4DF8C2F6F
:1001A0008295807FE0DF83E38A95F1F700C0CF91ED
:1001B000089581E0F0DF83E397E00197F1F7089578
:1001C00087B38F6387BB88B3807C88BB8FEF95E351
:1001D0000197F1F700C0000080E3C5DF8FEF91E1E8
:1001E0000197F1F700C00000B7DF89E993E00197BC
:1001F000F1F700C0B1DF89E993E00197F1F700C0A2
:1002000080E2B1DF8FEF91E10197F1F700C00000CC
:1002100088E2C1DF8CE0BFDF86E0BDDFCADF089582
:1002200082E0B9DF83E397E00197F1F70895623048
:1002300059F018F4613071F405C0633039F064305E
:1002400049F406C0805805C0805403C0805701C0DF
:100250008053A1DF0895CF93DF93EC018881882339
:1002600029F021968ADF89918111FCCFDF91CF910E
:10027000089597B18F71907E982B97B9369A3699D9
:10028000FECF24B135B1822F932F0895839911C0E9
:10029000EFEFF3EB3197F1F700C00000839909C04D
:1002A000FC0120812F5F261710F420830895FC01A4
:1002B000108208958091BB00882391F0863081F0F0
:1002C0009091BC008091BA0098130AC09091BD0033
:1002D0008091B900981304C081E08093B800AD9A72
:1002E0000895CF92DF92EF92FF920F931F93CF93D7
:1002F000DF938091BE008093B7008C3308F46FC009
:1003000080E0B7DF80E0B5DFBC0180E090E0D8D2CC
:1003100020E030E040EA5BE361D3062F172FD82FAF
:10032000C92F20E030EC48E255E458D36B017C0142
:10033000202F312F4D2F5C2F60E070E080EA90E499
:10034000F2D19B01AC01C701B60152D225E238EAD5
:1003500043E95DE343D36B017C016091600070E091
:100360006E5C7F4F882777FD8095982FABD221ED6B
:1003700032E44EE253E4D7D19B01AC01C701B60190
:10038000D3D16093B3007093B4008093B500909381
:10039000B6001092BE008091BD008F5F8C3318F4C0
:1003A0008093BD0007C01092BD008091BC008F5F9C
:1003B0008093BC008091BC00883188F01092BC0012
:1003C0008091BB008F5F873018F48093BB0002C020
:1003D0001092BB008091B20081958093BE00809105
:1003E000B800811101C066DFDF91CF911F910F919D
:1003F000FF90EF90DF90CF900895CF93823079F007
:1004000030F4882351F0813009F062C007C0833096
:1004100031F1843009F05CC038C0FFCFFFCF839941
:1004200008C08FEF93EB0197F1F700C00000839BAA
:10043000F6CF9091BE008091B700981352DF829959
:1004400049C08FEF93EB0197F1F700C0000082994C
:1004500043C06AE082EB90E019DF80E03EC0839900
:1004600008C08FEF93EB0197F1F700C00000839B6A
:10047000F6CF9091BE008091B700981332DF6AE00A
:1004800080E690E003DF80E028C0C0E09091BE00ED
:100490008091B700981325DF829907C08FEF93EB07
:1004A0000197F1F700C0000080B3CF5F19F0C130B1
:1004B00059F405C06CE38AEB90E0E8DEE7CF68E131
:1004C00089EB90E0E3DEE2CFC23000F380E005C0CC
:1004D00081E003C080E001C080E0CF91089582E216
:1004E0008093BD0085E08093BC0092E39093BE00B2
:1004F00096E09093BB008093BA0083E28093B900AA
:1005000084E07BDF81E079DF80E077DF089558DEEB
:1005100081E690E0A0DE62E080E089DE88E690E09F
:100520009ADE2FEF8FED90E1215080409040E1F76F
:1005300000C000003EDE80E487B983E086B9379AC8
:10054000369A3699FECF84B195B182B38C6082BB66
:1005500080E284BBC4DF81EF8DBD80EF8CBD84E081
:1005600089BF85E08EBD78941092B80008958330DD
:10057000B9F020F4813061F078F406C08530C1F024
:1005800098F08630E1F418C08FE690E064DE0895BC
:1005900083E790E060DE089587E790E05CDE0895F1
:1005A0008BE790E058DE08958FE790E054DE0895E1
:1005B00083E890E050DE089587E890E04CDE0895EF
:1005C0000F931F93CF93DF93CDB7DEB764970FB62A
:1005D000F894DEBF0FBECDBF182FEBDD21DE123049
:1005E00068F58091BB00C3DF4AE050E0BE016F5F59
:1005F0007F4F8091BC0090E074D2CE0101962BDE3B
:100600004AE050E0BE016F5F7F4F8091BD0090E0F7
:1006100068D28BE890E01FDECE0101961CDE4AE036
:1006200050E0BE016F5F7F4F8091BE0090E059D2D5
:100630008BE890E010DECE0101960DDE123011F550
:100640004AE050E0BE016F5F7F4F8091BA0090E0BA
:1006500048D2CE010196FFDD4AE050E0BE016F5F57
:100660007F4F8091B90090E03CD28BE890E0F3DDC1
:10067000CE010196F0DD62E080E0D9DD62E080E04D
:10068000D6DD19C062E080E0D2DD1130A1F46091C6
:10069000B3007091B4008091B5009091B6008E01C6
:1006A0000F5F1F4F22E042E0FCD1C801D4DD8FED87
:1006B00064DD83E462DD64960FB6F894DEBF0FBE9E
:1006C000CDBFDF91CF911F910F9108951F920F928F
:1006D0000FB60F9211248F9381EF8DBD80EF8CBDEB
:1006E0008091BE008F5F8093BE008F910F900FBEF0
:1006F0000F901F9018950BDF9091BE008091B7006E
:10070000981719F0EEDD81E05BDF8299F5CF8FEF6E
:1007100093EB0197F1F700C000008299EDCF1092A2
:10072000B800AD98E9CF5058BB27AA270ED01CC1FE
:100730000DD130F012D120F031F49F3F11F41EF4AE
:1007400002C10EF4E095E7FBF8C0E92F1ED180F35B
:10075000BA17620773078407950718F071F49EF5BE
:1007600036C10EF4E0950B2EBA2FA02D0B01B90166
:1007700090010C01CA01A0011124FF27591B99F017
:10078000593F50F4503E68F11A16F040A22F232F23
:10079000342F4427585FF3CF469537952795A79573
:1007A000F0405395C9F77EF41F16BA0B620B730B1A
:1007B000840BBAF09150A1F0FF0FBB1F661F771F8B
:1007C000881FC2F70EC0BA0F621F731F841F48F440
:1007D000879577956795B795F7959E3F08F0B3CFC6
:1007E0009395880F08F09927EE0F979587950895B0
:1007F0000CD0BAC0B2D040F0A9D030F021F45F3FA5
:1008000019F09BC05111E4C09EC0BFD098F399234A
:10081000C9F35523B1F3951B550BBB27AA276217C4
:100820007307840738F09F5F5F4F220F331F441F09
:10083000AA1FA9F333D00E2E3AF0E0E830D0915041
:100840005040E695001CCAF729D0FE2F27D0660F2E
:10085000771F881FBB1F261737074807AB07B0E86D
:1008600009F0BB0B802DBF01FF2793585F4F2AF083
:100870009E3F510568F061C0ABC05F3FECF3983E0E
:10088000DCF3869577956795B795F7959F5FC9F7E0
:10089000880F911D9695879597F90895E1E0660F69
:1008A000771F881FBB1F621773078407BA0720F0E2
:1008B000621B730B840BBA0BEE1F88F7E09508954B
:1008C000E89409C097FB3EF49095809570956195EA
:1008D0007F4F8F4F9F4F9923A9F0F92F96E9BB27A0
:1008E0009395F695879577956795B795F111F8CF1C
:1008F000FAF4BB0F11F460FF1BC06F5F7F4F8F4F87
:100900009F4F16C0882311F096E911C0772321F07C
:100910009EE8872F762F05C0662371F096E8862F14
:1009200070E060E02AF09A95660F771F881FDAF76B
:10093000880F9695879597F9089597F99F6780E8AE
:1009400070E060E008959FEF80EC089500240A9421
:100950001616170618060906089500240A9412169A
:100960001306140605060895092E0394000C11F4CD
:10097000882352F0BB0F40F4BF2B11F460FF04C07A
:100980006F5F7F4F8F4F9F4F089557FD9058440FD3
:10099000551F59F05F3F71F04795880F97FB991FDE
:1009A00061F09F3F79F0879508951216130614069B
:1009B000551FF2CF4695F1DF08C016161706180628
:1009C000991FF1CF86957105610508940895E89403
:1009D000BB2766277727CB0197F908950BD0C4CFA3
:1009E000B5DF28F0BADF18F0952309F0A6CFABCF1A
:1009F0001124EECFCADFA0F3959FD1F3950F50E0FD
:100A0000551F629FF001729FBB27F00DB11D639FC0
:100A1000AA27F00DB11DAA1F649F6627B00DA11D66
:100A2000661F829F2227B00DA11D621F739FB00D0C
:100A3000A11D621F839FA00D611D221F749F33277C
:100A4000A00D611D231F849F600D211D822F762F15
:100A50006A2F11249F5750408AF0E1F088234AF012
:100A6000EE0FFF1FBB1F661F771F881F915050405E
:100A7000A9F79E3F510570F060CFAACF5F3FECF31E
:100A8000983EDCF3869577956795B795F795E7954A
:100A90009F5FC1F7FE2B880F911D9695879597F95B
:100AA0000895EF920F931F93CF93C02F47FF02C07B
:100AB00034E101C034E0E42FFF27E7FDF095F7FFB4
:100AC00003C0F195E195F109E32E022F2E2F4C2F53
:100AD000512F26D08C2F912FCF911F910F91EF90F6
:100AE0000895FB019F01E8944230BCF04532ACF41C
:100AF0004A3029F497FB1EF4909581959F4F642FFF
:100B0000772772D2805D8A330CF0895D8193CB01A7
:100B10000097A9F716F45DE251931082C90154C2FF
:100B20006F927F929F92AF92BF92CF92DF92EF929D
:100B3000FF920F931F93CF93DF93CDB7DEB7299723
:100B40000FB6F894DEBF0FBECDBF6A01B22E102FD4
:100B50000C3318F4F02EF39402C05CE3F52E0F2D45
:100B600027E0AE014F5F5F4F57D17981272F297062
:100B7000213031F0E1FC06C0E0FE06C060E205C0B5
:100B80006DE203C06BE201C060E073FF3DC066230D
:100B900011F084E001C083E08B1510F4B81A01C095
:100BA000B12CE4FC0BC08B2DF60190E202C09193B6
:100BB00081508111FCCFCB0CD11CB12C662319F0D4
:100BC000D6016D936D01E2FE0AC08EE4F6018083CA
:100BD00091E491838283F3E0CF0ED11C0CC08EE6AA
:100BE000D6018C9391E611969C93119712968C9353
:100BF000B3E0CB0ED11C8B2DF60190E202C0919395
:100C000081508111FCCF40C072FF45C0662311F0B6
:100C100084E001C083E08B1510F4B81A01C0B12C38
:100C2000E4FC0BC08B2DF60190E202C09193815041
:100C30008111FCCFCB0CD11CB12C662319F0F6012D
:100C400061936F01E2FE0EC089E4D6018C938EE4BD
:100C500011968C93119786E412968C93B3E0CB0E89
:100C6000D11C0AC089E6F60180838EE6818386E680
:100C70008283F3E0CF0ED11C8B2DF60190E202C0EF
:100C8000919381508111FCCFF601EB0DF11D108283
:100C90002EEF3FEFACC0A1E0611101C0A0E04A2FF0
:100CA00050E01816190624F49C012F5F3F4F02C034
:100CB00021E030E0240F351F112329F0412F50E0AF
:100CC0004F5F5F4F02C040E050E0420F531F2B2D9B
:100CD00030E04217530714F4B41A01C0B12C3E2D72
:100CE0003071E4FC0DC0E3FC0BC02B2DF60140E29B
:100CF00002C0419321502111FCCFCB0CD11CB12C4F
:100D0000AA2319F0D6016D936D0131110BC02B2D63
:100D1000F60130E302C0319321502111FCCFCB0CFE
:100D2000D11CB12CF80E0A8140E1A42EA72274FF39
:100D300003C0013309F4FA941F142CF42F2D293029
:100D400018F028E001C021E0AC0197FF02C040E0AC
:100D500050E060E070E03EE2932EFC01E21BF109FE
:100D60009F01DC01A41BB50BFE013196EA0FFB1FAE
:100D7000A12FB0E0662477246A1A7B0A4F3F1FEF49
:100D8000510719F4D6019D926D018417950754F00F
:100D9000241735073CF47F01E60EF71ED7011196A4
:100DA0001C9101C010E3415051096F5F7F4F461500
:100DB000570524F0D6011D936D01E0CF4817590760
:100DC00039F4063320F4053319F4A11001C011E3FE
:100DD000F60111938B2DDF0190E202C09D938150AB
:100DE0008111FCCFEB0DF11D108220E030E0C90134
:100DF00029960FB6F894DEBF0FBECDBFDF91CF911D
:100E00001F910F91FF90EF90DF90CF90BF90AF9028
:100E10009F907F906F900895283008F027E0332747
:100E2000DA01990F311D87FD91600096610571050A
:100E300039F432602E5F3D9330E32A95E1F708954F
:100E40009F3F30F080387105610509F03C5F3C5FE1
:100E50003D93913008F08068911DDF93CF931F93ED
:100E60000F93FF92EF92192F987F9695E92F969501
:100E70009695E90FFF27E058FF4F99273327EE2477
:100E8000FF24A701E70105900894079428F4360F82
:100E9000E71EF81E491F511D660F771F881F991FF7
:100EA0000694A1F70590079428F4E70EF81E491F51
:100EB000561FC11D770F881F991F661F0694A1F743
:100EC0000590079428F4F80E491F561FC71FD11D1F
:100ED000880F991F661F771F0694A1F70590079446
:100EE00020F4490F561FC71FD81F990F661F771F81
:100EF000881F0694A9F784911095177041F0D69534
:100F0000C79557954795F794E7941A95C1F7E6E288
:100F1000F0E0689415901591359165919591059043
:100F20007FE27395E118F10A430B560BC90BD00908
:100F3000C0F7E10CF11E431F561FC91FD01D7EF4E0
:100F4000703311F48A95E6CFE894015030F0080F21
:100F50000AF40027021708F4202F2395022F7A3372
:100F600028F079E37D932A95E9F710C07D932A95BF
:100F700089F6069497956795379517951794E11814
:100F8000F10A430B560BC90BD00998F023957E91BB
:100F900073957A3308F070E37C932013B8F77E9151
:100FA00070617D9330F0839571E37D9370E32A95B2
:100FB000E1F71124EF90FF900F911F91CF91DF91F6
:100FC000992787FD90950895DC01FC01672F7191A9
:100FD0007723E1F7329704C07C916D93708362911F
:100FE000AE17BF07C8F30895AA1BBB1B51E107C08A
:100FF000AA1FBB1FA617B70710F0A61BB70B881FA9
:10100000991F5A95A9F780959095BC01CD01089537
:04101000F894FFCF82
:10101400025765636B6572005374617274210053E7
:101024006F20004D6F2000446920004D692000446A
:101034006F200046722000536120003A0057537419
:10104400756E64656E00574D696E7574656E0057F4
:101054006F6368656E5461670053656B756E646594
:021064006E001C
:00000001FF
