:1000000022C03CC03BC03AC039C038C037C036C03F
:1000100009CBDBCA33C032C031C030C02FC02EC0C4
:100020002DC02CC02BC00EC316C31EC321C326C3B4
:100030002FC34BC350C34AC9BCC6CBC9D9C88EC78E
:10004000F5C764C81EC711241FBECFE5D4E0DEBFCC
:10005000CDBF11E0A0E6B0E0E0EFFCE102C005900A
:100060000D92A836B107D9F721E0A8E6B1E001C0AA
:100070001D92A439B207E1F7EADA38CEC1CFC59AAA
:1000800088E18A95F1F700C0C598089598B3907FEC
:1000900098BB98B382958F70982B98BBF0DF08952A
:1000A000CF93C82FC49AF2DF8C2F8295807FEEDF2A
:1000B00088E38A95F1F700C0CF910895CF93C82FB8
:1000C000C498E4DF8C2F8295807FE0DF83E38A95FC
:1000D000F1F700C0CF91089581E0F0DF83E397E06E
:1000E0000197F1F7089587B38F6387BB88B3807C4E
:1000F00088BB8FEF95E30197F1F700C0000080E324
:10010000C5DF8FEF91E10197F1F700C00000B7DF85
:1001100089E993E00197F1F700C0B1DF89E993E045
:100120000197F1F700C080E2B1DF8FEF91E1019715
:10013000F1F700C0000088E2C1DF8CE0BFDF86E09D
:10014000BDDFCADF089582E0B9DF83E397E001975E
:10015000F1F70895623059F018F4613071F405C078
:10016000633039F0643049F406C0805805C08054CB
:1001700003C0805701C08053A1DF0895CF93DF9360
:10018000EC018881882329F021968ADF89918111E9
:10019000FCCFDF91CF91089597B18F71907E982B0E
:1001A00097B9369A3699FECF24B135B1822F932F65
:1001B0000895833099F020F4813061F068F406C02E
:1001C000853091F068F08630B1F412C085B3877C39
:1001D00085BB0895AD9A0895AC9A0895AB9A089599
:1001E00085B3886385BB089585B3806385BB089517
:1001F00085B3886185BB089580919001882309F4B7
:1002000051C0863009F44EC080916000882309F403
:1002100094C080918301811111C090918B018091D4
:10022000910198138AC090918A018091920198134C
:1002300084C081E08093830186E0BBDF80918301ED
:10024000813009F07AC090918901809191019813D1
:1002500012C0909188018091920198130CC081E0A6
:100260008093830180E0A5DF84E0A3DF8091830198
:10027000813009F062C090918E01809191019813B4
:100280005CC090918C0180919201981356C082E0DD
:10029000809383018CED82BF89B7816089BF83E041
:1002A00083BF089580916100882309F446C080913E
:1002B0008301811111C09091870180919101981360
:1002C0003CC09091860180919201981336C081E0E4
:1002D0008093830186E06DDF80918301813069F531
:1002E0009091850180919101981311C090918401A2
:1002F0008091920198130BC081E08093830180E08C
:1003000058DF84E056DF809183018130B1F4909111
:100310008F0180919101981310C090918D0180916F
:10032000920198130AC082E0809383018CED82BF12
:1003300089B7816089BF83E083BF08958F929F92C0
:10034000AF92BF92CF92DF92EF92FF92CF93DF9363
:10035000CDB7DEB72A970FB6F894DEBF0FBECDBF7C
:1003600080E01ADF80E018DF7C0180E015DF8E0D71
:100370009F1DBC0180E090E085DB20E030E040E0A4
:100380005FE30EDC53DB7A87698769857A8580E0D5
:1003900090E078DB2AE038E240EA5BE301DC462FBC
:1003A000572F682F792F4D835E836F8378876D81F8
:1003B0007E818F8198858D809E80AF80B88420E07B
:1003C00030E44EE455E4ECDB6B017C01A5019401C3
:1003D00060E070E080EA90E457DA9B01AC01C7016D
:1003E000B601B7DA462F572F682F792F49835A83E2
:1003F0006B837C8369817A818B819C8125E238EAD9
:1004000043E95DE3CDDB6B017C0160917D017727E2
:1004100067FD70956E5C7F4F882777FD8095982FDC
:1004200033DB21ED32E44EE253E42EDA9B01AC01E2
:10043000C701B6012ADAC62ED72EE82EF92E20E003
:1004400030E040E251E4ACDBECDA87E66802812D73
:1004500011248595859567FD8395880F982F990FB1
:10046000990F890F681B65306CF48C2D9D2DAE2D76
:10047000BF2D80937E0190937F01A0938001B09364
:10048000810111C020E030E040E85FE36C2D7D2D5C
:100490008E2D9F2DFAD960937E0170937F018093FA
:1004A0008001909381012A960FB6F894DEBF0FBEAB
:1004B000CDBFDF91CF91FF90EF90DF90CF90BF90B5
:1004C000AF909F908F9008958091930180938201C7
:1004D0008C538D3868F532DF109293018091920130
:1004E0008F5F8C3318F48093920107C010929201B1
:1004F000809191018F5F809391018091910188316A
:10050000B8F010929101809190018F5F873018F4BC
:100510008093900106C010929001809165008093B5
:10052000930180918301882339F01092830104C0E4
:1005300080918301833009F05FDE08958330B9F044
:1005400020F4813061F078F406C08530C1F098F075
:100550008630E1F418C086E690E010DE08958AE661
:1005600090E00CDE08958EE690E008DE089582E7C4
:1005700090E004DE089586E790E000DE08958AE7C3
:1005800090E0FCDD08958EE790E0F8DD0895882383
:1005900021F0813009F042C01AC04AE050E069E61B
:1005A00071E08091910190E05EDB89E691E0E6DD0B
:1005B00082E890E0E3DD4AE050E069E671E0809196
:1005C000920190E050DB89E691E0D8DD08954AE0A1
:1005D00050E069E671E08091910190E044DB89E6AA
:1005E00091E0CCDD82E890E0C9DD4AE050E069E6C8
:1005F00071E08091920190E036DB89E691E0BEDD0A
:1006000082E890E0BBDD4AE050E069E671E080916D
:10061000930190E028DB89E691E0B0DD0895CF9367
:10062000C62F813021F0823009F0A4C071C054DDA2
:100630008ADDEC2FF0E0E830F10508F09BC0ED5EBC
:10064000FF4F09948091900179DF80E890E096DD7A
:1006500080E09DDF8FC08091900170DF80E890E0A6
:100660008DDD81E094DF86C08091900167DF82C0DC
:100670008091900163DF81E08ADF7CC087E491E0B4
:100680007DDD62E080E066DD81E591E077DD72C0CE
:100690008DE591E073DD4AE050E069E671E080911C
:1006A0008E0190E0E0DA89E691E068DD82E890E092
:1006B00065DD4AE050E069E671E080918C0190E0F0
:1006C000D2DA89E691E05ADD55C08091900136DF9B
:1006D00080E05DDF4FC08DE591E050DD4AE050E005
:1006E00069E671E080918F0190E0BDDA89E691E0E2
:1006F00045DD82E890E042DD4AE050E069E671E0E5
:1007000080918D0190E0AFDA89E691E037DD32C06B
:1007100062E080E01FDDC13069F560917E0170917B
:100720007F0180918001909181017BD9862F4AE0E1
:1007300050E069E671E0992787FD909594DA89E6A3
:1007400091E01CDD8FEDACDC83E4AADC80918301B9
:100750008150823038F461E08CE0FCDC84E890E089
:100760000DDD08C0AD9B06C061E08CE0F3DC87E8DE
:1007700090E004DDCF910895CF93DF93E901829952
:1007800031C0EFEFF3EB3197F1F700C00000EFEF6E
:10079000F3E23197F1F700C00000829B23C0EFEF36
:1007A000F3EB3197F1F700C00000EFEFF3E2319780
:1007B000F1F700C00000FC0120812F5F261710F424
:1007C000208302C0FC011082642F81E028DF60E0FA
:1007D00082E025DF8881882329F0219661DC8991D8
:1007E0008111FCCFDF91CF9108951F93CF93DF93B9
:1007F000833009F4C6C030F4813009F474C008F0C5
:1008000098C009C0853009F475C108F4E2C086308B
:1008100009F027C200C266E081E001DF60E082E00B
:10082000FEDE8AE890E0AADCC0E0839934C08FEF56
:1008300093EB0197F1F700C000008FEF93E201976F
:10084000F1F700C00000839B26C08FEF93EB019768
:10085000F1F700C000008FEF93E20197F1F700C0BD
:100860000000CF5F39DC66E081E0D9DE60E082E045
:10087000D6DEC13041F018F0C23069F408C08AE811
:1008800090E07CDC0EC082E990E078DC13C08AE95D
:1008900090E074DC18C0C13069F018F0C230E1F4A7
:1008A00012C02AE830E046E068E181E991E064DFC7
:1008B000C0E0BBCF22E930E046E06CE382E991E0A2
:1008C0005BDFC1E0B2CF2AE930E046E067E080E9D3
:1008D00091E052DFC2E0A9CFC33008F4A6CF109256
:1008E000930180E0BFC190919301809182019813A0
:1008F000EBDD809164008F5F843018F48093640096
:1009000003C081E080936400E7DB1DDC84EA90E0B3
:1009100035DC60E082E083DE4AE050E069E671E0C9
:100920008091640090E09FD989E691E027DC80E027
:1009300099C190919301809182019813C5DD8091B6
:1009400065008F5F8B301CF48093650003C086EFD9
:1009500080936500C1DBF7DB83EB90E00FDC60E0A8
:1009600082E05DDE809165004AE050E069E671E07A
:10097000992787FD909577D989E691E0FFDB80E0A4
:1009800071C1909193018091820198139DDD8091B6
:100990007D018F5F8B301CF480937D0103C086EF57
:1009A00080937D0199DBCFDB83EC90E0E7DB60E0B7
:1009B00082E035DE80917D014AE050E069E671E039
:1009C000992787FD90954FD989E691E0D7DB80E0A4
:1009D00049C165E081E023DE60E082E020DE85ED54
:1009E00090E0CCDBC0E011E0D0E020919301909149
:1009F0008201291369DD83992EC08FEF93EB019754
:100A0000F1F700C000008FEF93E20197F1F700C00B
:100A10000000839B20C08FEF93EB0197F1F700C09C
:100A200000008FEF93E20197F1F700C00000CF5F65
:100A300065E0812FF4DD6D2F82E0F1DDCC2319F02C
:100A4000C13049F404C085ED90E098DB09C081EE27
:100A500090E094DB0EC0CC2319F0C13099F409C0AA
:100A600025ED30E045E068E18EE891E085DECD2FB0
:100A7000BCCF21EE30E045E06CE38CE891E07CDE19
:100A8000C12FB3CFC23008F4B0CF90918C01309118
:100A90006200292F231B20938A0180918E0180936D
:100AA0008B012C3370F0245C20938A01282F215075
:100AB000283118F420938B0104C0282F295E20933D
:100AC0008B013695931B90938801809389019C3309
:100AD00068F0945C90938801982F9150983118F4A5
:100AE0009093890103C0895E8093890110928301EC
:100AF00080E0B8C067E081E092DD60E082E08FDDF9
:100B00008DEE90E03BDBC0E011E0D0E0209193015E
:100B1000909182012913D8DC83992EC08FEF93EB3B
:100B20000197F1F700C000008FEF93E20197F1F712
:100B300000C00000839B20C08FEF93EB0197F1F77B
:100B400000C000008FEF93E20197F1F700C00000B2
:100B5000CF5F67E0812F63DD6D2F82E060DDCC2306
:100B600019F0C13049F404C08DEE90E007DB09C0F4
:100B700089EF90E003DB0EC0CC2319F0C13099F46B
:100B800009C02DEE30E047E068E18FE891E0F4DD48
:100B9000CD2FBCCF29EF30E047E06CE38DE891E04A
:100BA000EBDDC12FB3CFC23008F4B0CF90918D01EF
:100BB00030916200292F231B2093860180918F01A1
:100BC000809387012C3370F0245C20938601282FBA
:100BD0002150283118F42093870104C0282F295E62
:100BE000209387013695931B909384018093850110
:100BF0009C3368F0945C90938401982F91509831C5
:100C000018F49093850103C0895E8093850110924A
:100C1000830180E027C09091930180918201981315
:100C200053DC809162008F5F8D3318F480936200F3
:100C300003C08AE0809362004FDA85DA85E091E0B4
:100C40009DDA60E082E0EBDC4AE050E069E671E0CA
:100C50008091620090E007D889E691E08FDA80E029
:100C600001C081E0DF91CF911F91089582E28093CE
:100C7000920185E0809391011092930196E0909308
:100C8000900180938E018DE280938C0197E0909388
:100C90008F0180938D0184E0A8DD85E0A6DD80E0F2
:100CA000A4DD0895DF92EF92FF920F931F93CF93ED
:100CB000DF9340E0C1E06894FF24F2F8DC2F15E0F8
:100CC0006894DD24D3F807E00F2EF9E0EF2EF02D25
:100CD00050E0FA013197E830F10518F4E55EFF4F76
:100CE0000994FAD9612F8C2F9ADC60E082E097DCBE
:100CF00085E191E043DA3FC0E7DB82991FC08FEFC7
:100D000093EB0197F1F700C000008FEF93E201979A
:100D1000F1F700C00000829B11C08FEF93EB0197A9
:100D2000F1F700C000008FEF93E20197F1F700C0E8
:100D300000008F2D5ADD85E191E020DA84991BC0F7
:100D40008FEF93EB0197F1F700C000008FEF93E274
:100D50000197F1F700C00000849B0DC08FEF93EB6B
:100D60000197F1F700C000008FEF93E20197F1F7D0
:100D700000C00000F0C38399AFC38FEF93EB0197DE
:100D8000F1F700C000008FEF93E20197F1F700C088
:100D90000000839BA1C38FEF93EB0197F1F700C095
:100DA00000008FEF93E20197F1F700C000004C2F95
:100DB0008FCF92D9602F8C2F32DC60E082E02FDC65
:100DC0008EE191E0DBD93FC07FDB82991FC08FEFBE
:100DD00093EB0197F1F700C000008FEF93E20197CA
:100DE000F1F700C00000829B11C08FEF93EB0197D9
:100DF000F1F700C000008FEF93E20197F1F700C018
:100E00000000812FF2DC8EE191E0B8D984991BC0FB
:100E10008FEF93EB0197F1F700C000008FEF93E2A3
:100E20000197F1F700C00000849B0DC08FEF93EB9A
:100E30000197F1F700C000008FEF93E20197F1F7FF
:100E400000C0000088C383994EC38FEF93EB0197D6
:100E5000F1F700C000008FEF93E20197F1F700C0B7
:100E60000000839B40C38FEF93EB0197F1F700C025
:100E700000008FEF93E20197F1F700C0000043E01C
:100E800027CF2AD984EA90E079D960E082E0C7DBF5
:100E90004AE050E069E671E08091640090E0E3D6BA
:100EA00089E691E06BD93CC00FDB82991CC08FEFC3
:100EB00093EB0197F1F700C000008FEF93E20197E9
:100EC000F1F700C00000829B0EC08FEF93EB0197FB
:100ED000F1F700C000008FEF93E20197F1F700C037
:100EE00000008C2F82DC84991BC08FEF93EB01975D
:100EF000F1F700C000008FEF93E20197F1F700C017
:100F00000000849B0DC08FEF93EB0197F1F700C0B9
:100F100000008FEF93E20197F1F700C000001BC3C0
:100F20008399E8C28FEF93EB0197F1F700C00000BF
:100F30008FEF93E20197F1F700C00000839BDAC2C4
:100F40008FEF93EB0197F1F700C000008FEF93E272
:100F50000197F1F700C000004E2DBACEBDD863E076
:100F60008C2F5DDB60E082E05ADB88E291E006D9FD
:100F70003FC0AADA82991FC08FEF93EB0197F1F778
:100F800000C000008FEF93E20197F1F700C000006E
:100F9000829B11C08FEF93EB0197F1F700C0000027
:100FA0008FEF93E20197F1F700C0000080E01DDCB5
:100FB00088E291E0E3D884991BC08FEF93EB01970F
:100FC000F1F700C000008FEF93E20197F1F700C046
:100FD0000000849B0DC08FEF93EB0197F1F700C0E9
:100FE00000008FEF93E20197F1F700C00000B3C259
:100FF000839987C28FEF93EB0197F1F700C0000050
:101000008FEF93E20197F1F700C00000839B79C254
:101010008FEF93EB0197F1F700C000008FEF93E2A1
:101020000197F1F700C0000046E052CE55D88BD8AA
:1010300083EB90E0A3D860E082E0F1DA8091650074
:101040004AE050E069E671E0992787FD90950BD65C
:1010500089E691E093D83CC037DA82991CC08FEFC3
:1010600093EB0197F1F700C000008FEF93E2019737
:10107000F1F700C00000829B0EC08FEF93EB019749
:10108000F1F700C000008FEF93E20197F1F700C085
:10109000000082E0AADB84991BC08FEF93EB0197DD
:1010A000F1F700C000008FEF93E20197F1F700C065
:1010B0000000849B0DC08FEF93EB0197F1F700C008
:1010C00000008FEF93E20197F1F700C0000043C2E8
:1010D00083991EC28FEF93EB0197F1F700C00000D8
:1010E0008FEF93E20197F1F700C00000839B10C2DD
:1010F0008FEF93EB0197F1F700C000008FEF93E2C1
:101100000197F1F700C00000402FE2CDE5D71BD8D2
:1011100083EC90E033D860E082E081DA80917D0159
:101120004AE050E069E671E0992787FD90959BD5EC
:1011300089E691E023D83DC0C7D982991CC08FEFC2
:1011400093EB0197F1F700C000008FEF93E2019756
:10115000F1F700C00000829B0EC08FEF93EB019768
:10116000F1F700C000008FEF93E20197F1F700C0A4
:10117000000083E03ADB84991CC08FEF93EB01976A
:10118000F1F700C000008FEF93E20197F1F700C084
:101190000000849B0EC08FEF93EB0197F1F700C026
:1011A00000008FEF93E20197F1F700C00000C6D86E
:1011B000D2C18399B4C18FEF93EB0197F1F700C0CF
:1011C00000008FEF93E20197F1F700C00000839BCE
:1011D000A6C18FEF93EB0197F1F700C000008FEFEE
:1011E00093E20197F1F700C00000A8D84D2D70CD13
:1011F00073D7A9D785E091E0C1D760E082E00FDA2C
:101200004AE050E069E671E08091620090E02BD501
:1012100089E691E0B3D73CC057D982991CC08FEFC3
:1012200093EB0197F1F700C000008FEF93E2019775
:10123000F1F700C00000829B0EC08FEF93EB019787
:10124000F1F700C000008FEF93E20197F1F700C0C3
:10125000000086E0CADA84991BC08FEF93EB0197F8
:10126000F1F700C000008FEF93E20197F1F700C0A3
:101270000000849B0DC08FEF93EB0197F1F700C046
:1012800000008FEF93E20197F1F700C0000063C107
:1012900083994CC18FEF93EB0197F1F700C00000E9
:1012A0008FEF93E20197F1F700C00000839B3EC1EE
:1012B0008FEF93EB0197F1F700C000008FEF93E2FF
:1012C0000197F1F700C00000412F02CD05D73BD7B1
:1012D0008DE291E053D760E082E0A1D94AE050E08E
:1012E00069E671E08091600090E0BDD489E691E00C
:1012F00045D751C0E9D8829931C08FEF93EB019760
:10130000F1F700C000008FEF93E20197F1F700C002
:101310000000829B23C08FEF93EB0197F1F700C091
:1013200000008FEF93E20197F1F700C00000809179
:101330006000882319F01092600002C0D093600012
:1013400060E082E06CD94AE050E069E671E08091AB
:10135000600090E088D489E691E010D784991BC0A2
:101360008FEF93EB0197F1F700C000008FEF93E24E
:101370000197F1F700C00000849B0DC08FEF93EB45
:101380000197F1F700C000008FEF93E20197F1F7AA
:1013900000C00000E0C08399D0C08FEF93EB0197AD
:1013A000F1F700C000008FEF93E20197F1F700C062
:1013B0000000839BC2C08FEF93EB0197F1F700C051
:1013C00000008FEF93E20197F1F700C0000042E0C8
:1013D0007FCC82D6B8D689E391E0D0D660E082E0B7
:1013E0001ED94AE050E069E671E08091610090E02A
:1013F0003AD489E691E0C2D651C066D8829931C00C
:101400008FEF93EB0197F1F700C000008FEF93E2AD
:101410000197F1F700C00000829B23C08FEF93EB90
:101420000197F1F700C000008FEF93E20197F1F709
:1014300000C0000080916100882319F010926100C3
:1014400002C0D093610060E082E0E9D84AE050E059
:1014500069E671E08091610090E005D489E691E051
:101460008DD684991BC08FEF93EB0197F1F700C0E5
:1014700000008FEF93E20197F1F700C00000849B1A
:101480000DC08FEF93EB0197F1F700C000008FEFD5
:1014900093E20197F1F700C000005DC0839954C04A
:1014A0008FEF93EB0197F1F700C000008FEF93E20D
:1014B0000197F1F700C00000839B46C08FEF93EBCC
:1014C0000197F1F700C000008FEF93E20197F1F769
:1014D00000C000004F2DFCCB9091930180918201C0
:1014E00098130ACC0ACC90919301809182019813B1
:1014F0006BCC6BCC90919301809182019813D4CCEA
:10150000D4CC9091930180918201981332CD32CD49
:10151000909193018091820198139ECD9ECD9091E0
:10152000930180918201981307CE07CE9091930189
:1015300080918201981370CE70CE2091930190918A
:1015400082012913D7CED7CE2091930190918201A9
:10155000291353CF53CF81E0DF91CF911F910F918A
:10156000FF90EF90DF90089580E487B983E086B91B
:10157000379A369A3699FECF84B195B182B38C6191
:1015800082BB8EE384BB85B38E6385BB85B3817CD0
:1015900085BBA9D564E081E042D82FEF8FED90E1C3
:1015A000215080409040E1F700C0000095D55EDBFF
:1015B00081EF8DBD80EF8CBD89B7846089BF85E0E8
:1015C0008EBD78941092830108951F920F920FB6EA
:1015D0000F9211242F933F934F935F936F937F93B9
:1015E0008F939F93AF93BF93EF93FF938CED82BF45
:1015F000A99904C083E0DDD5A99A03C080E0D9D5BC
:10160000A998FF91EF91BF91AF919F918F917F9199
:101610006F915F914F913F912F910F900FBE0F905F
:101620001F9018951F920F920FB60F9211248F934F
:1016300081EF8DBD80EF8CBD809193018F5F809392
:1016400093018F910F900FBE0F901F9018958CDF14
:10165000CFE8D1E00F2EFDE8EF2EF1E0FF2EF02DC8
:101660000EE811E00F2EFCE8CF2EF1E0DF2EF02D7A
:101670009091930180918201981741F125D7809133
:1016800063008823C9F063E081E0C9D761E082E0AC
:10169000C6D780918301813079F4809163008111F4
:1016A0000BC0AA9A20D563E081E0B9D761E082E05F
:1016B000B6D781E08093630080916801883730F06D
:1016C000109263001092680107D5AA988091830157
:1016D000982F9150923030F5829950C08FEF93EB54
:1016E0000197F1F700C00000EFEFF3E23197F1F757
:1016F00000C00000829B42C08FEF93EB0197F1F78F
:1017000000C00000EFEFF3E23197F1F700C00000F6
:101710001092680183E08093830180E04AD513BE74
:10172000A9982CC0833051F5809190018823A9F0AD
:10173000863099F0F80190818091910198131EC034
:101740002091920130E0F601808190E00196281707
:101750003907A1F41092830111C098818091910101
:1017600098130CC02091920130E0F701808190E045
:1017700001962817390711F410928301849935C016
:101780008FEF93EB0197F1F700C00000EFEFF3E26A
:101790003197F1F700C00000849B27C08FEF93EBD7
:1017A0000197F1F700C00000EFEFF3E23197F1F796
:1017B00000C00000809183018130B9F0823009F0CF
:1017C00050C013C0AA9A8FD463E081E028D761E0AB
:1017D00082E025D781E08093630007C063DA63E08D
:1017E00081E01DD761E082E01AD7839941CF8FEF66
:1017F00093EB0197F1F700C00000EFEFF3E23197B0
:10180000F1F700C00000839B33CF8FEF93EB01977C
:10181000F1F700C00000EFEFF3E23197F1F700C0FD
:10182000000080918301813009F422CF823001F5DC
:101830001FCFAD9B03C080E0BCD41ACF81E0B9D4E8
:1018400017CFAD9B03C080E0B4D412CF85E0B1D4F4
:101850000FCFAD9B03C080E0ACD40ACF84E0A9D405
:1018600007CF10926801809163008111B7CFAACF92
:101870001092680180916400823019F3833049F33B
:10188000813009F0F5CED5CF5058BB27AA270ED00E
:101890004DC13ED130F043D120F031F49F3F11F4DF
:1018A0001EF433C10EF4E095E7FB29C1E92F4FD1B7
:1018B00080F3BA17620773078407950718F071F46D
:1018C0009EF567C10EF4E0950B2EBA2FA02D0B01EB
:1018D000B90190010C01CA01A0011124FF27591B75
:1018E00099F0593F50F4503E68F11A16F040A22F7B
:1018F000232F342F4427585FF3CF469537952795EC
:10190000A795F0405395C9F77EF41F16BA0B620BEA
:10191000730B840BBAF09150A1F0FF0FBB1F661F31
:10192000771F881FC2F70EC0BA0F621F731F841F74
:1019300048F4879577956795B795F7959E3F08F09A
:10194000B3CF9395880F08F09927EE0F9795879559
:1019500008950CD0EBC0E3D040F0DAD030F021F4A1
:101960005F3F19F0CCC0511115C1CFC0F0D098F332
:101970009923C9F35523B1F3951B550BBB27AA2710
:1019800062177307840738F09F5F5F4F220F331F82
:10199000441FAA1FA9F333D00E2E3AF0E0E830D04E
:1019A00091505040E695001CCAF729D0FE2F27D051
:1019B000660F771F881FBB1F261737074807AB071F
:1019C000B0E809F0BB0B802DBF01FF2793585F4F94
:1019D0002AF09E3F510568F092C0DCC05F3FECF3F7
:1019E000983EDCF3869577956795B795F7959F5F59
:1019F000C9F7880F911D9695879597F90895E1E0AD
:101A0000660F771F881FBB1F621773078407BA070B
:101A100020F0621B730B840BBA0BEE1F88F7E09566
:101A2000089504D06894B111B5C0089598D088F095
:101A30009F5790F0B92F9927B751A0F0D1F0660FBA
:101A4000771F881F991F1AF0BA95C9F712C0B130D5
:101A500081F09FD0B1E008959CC0672F782F882730
:101A6000B85F39F0B93FCCF3869577956795B39514
:101A7000D9F73EF490958095709561957F4F8F4F83
:101A80009F4F0895E89409C097FB3EF49095809588
:101A9000709561957F4F8F4F9F4F9923A9F0F92F34
:101AA00096E9BB279395F695879577956795B795B2
:101AB000F111F8CFFAF4BB0F11F460FF1BC06F5F98
:101AC0007F4F8F4F9F4F16C0882311F096E911C0AA
:101AD000772321F09EE8872F762F05C0662371F0CB
:101AE00096E8862F70E060E02AF09A95660F771FDF
:101AF000881FDAF7880F9695879597F9089597F9D3
:101B00009F6780E870E060E008959FEF80EC0895A3
:101B100000240A94161617061806090608950024CC
:101B20000A9412161306140605060895092E039446
:101B3000000C11F4882352F0BB0F40F4BF2B11F4BA
:101B400060FF04C06F5F7F4F8F4F9F4F089557FD19
:101B50009058440F551F59F05F3F71F04795880F1B
:101B600097FB991F61F09F3F79F0879508951216B2
:101B700013061406551FF2CF4695F1DF08C016165E
:101B800017061806991FF1CF86957105610508940F
:101B90000895E894BB2766277727CB0197F9089526
:101BA0000BD0C4CFB5DF28F0BADF18F0952309F0C9
:101BB000A6CFABCF1124EECFCADFA0F3959FD1F310
:101BC000950F50E0551F629FF001729FBB27F00DEB
:101BD000B11D639FAA27F00DB11DAA1F649F662740
:101BE000B00DA11D661F829F2227B00DA11D621F8F
:101BF000739FB00DA11D621F839FA00D611D221F49
:101C0000749F3327A00D611D231F849F600D211D2C
:101C1000822F762F6A2F11249F5750408AF0E1F0CF
:101C200088234AF0EE0FFF1FBB1F661F771F881F18
:101C300091505040A9F79E3F510570F060CFAACF58
:101C40005F3FECF3983EDCF3869577956795B79503
:101C5000F795E7959F5FC1F7FE2B880F911D96952D
:101C6000879597F90895FB019F01E8944230BCF0F5
:101C70004532ACF44A3029F497FB1EF490958195D7
:101C80009F4F642F77271ED0805D8A330CF0895DCB
:101C90008193CB010097A9F716F45DE2519310826E
:101CA000C90100C0DC01FC01672F71917723E1F7C6
:101CB000329704C07C916D9370836291AE17BF0719
:101CC000C8F30895AA1BBB1B51E107C0AA1FBB1F85
:101CD000A617B70710F0A61BB70B881F991F5A95B8
:101CE000A9F780959095BC01CD010895F894FFCF98
:101CF0000101140103FE536F20004D6F2000446961
:101D000020004D692000446F20004672200053617E
:101D100020003A005765004C69005374756E646585
:101D20006E004D696E7574656E00576F6368656E01
:101D3000546167004C616D70656E73746165726BA0
:101D4000653A0053656B756E64656E6F66667365A4
:101D5000743A0054656D706572617475726F666671
:101D60007365743A00575374756E64656E205745F9
:101D700000574D696E7574656E2057450057537452
:101D8000756E64656E20574F00574D696E757465AA
:101D90006E20574F005765636B65727665727A6F78
:101DA0006567653A005765726B7461677300576FBA
:101DB00068656E656E6465005A6569740057656391
:101DC0006B7461677377653A00576F6368656E651A
:101DD0006E647377653A00477574656E2054616769
:101DE0000056657273696F6E20322E390057656335
:081DF0006B7A6569743A20006A
:00000001FF
