S0250000536F6E6E656E61756667616E67737765636B65726C616D70655F325F302E7372656392
S113000097C0B1C0B0C0AFC0AEC0ADC0ACC0ABC093
S113001068C8A9C0A8C0A7C0A6C0A5C0A4C0A3C0E2
S1130020A2C0A1C0A0C048C250C258C25BC260C234
S113003069C285C28AC200407A10F35A00A0724E87
S113004018090010A5D4E80000E87648170000E479
S11300500B54020000CA9A3B000000E1F5050000C1
S113006080969800000040420F000000A086010026
S11300700000102700000000E803000000006400F6
S1130080000000000A000000000001000000000061
S11300902C76D888DC674F0823DFC1DFAE59E1B185
S11300A0B796E5E3E453C63AE651997696E8E6C294
S11300B08426EB898C9B62ED407C6FFCEFBC9C9F9B
S11300C040F2BAA56FA5F490055A2AF75C936B6CBD
S11300D0F9676DC11BFCE0E40D47FEF520E6B500B1
S11300E0D0ED902E0300943577050080841E08001F
S11300F000204E0A000000C80C333333330F986ECF
S113010012831141EF8D2114893BE65516CFFEE68B
S1130110DB18D1844B381BF77C1D901DA4BBE42451
S1130120203284725E228100C9F124ECA1E53D27CE
S113013011241FBECFE5D4E0DEBFCDBF11E0A0E6A1
S1130140B0E0ECE8F8E102C005900D92A435B107E7
S1130150D9F721E0A4E5B1E001C01D92A837B207A8
S1130160E1F7D4D791CB4CCFC59A88E18A95F1F7C2
S113017000C0C598089598B3907F98BB98B38295B2
S11301808F70982B98BBF0DF0895CF93C82FC49A33
S1130190F2DF8C2F8295807FEEDF88E38A95F1F77A
S11301A000C0CF910895CF93C82FC498E4DF8C2F5B
S11301B08295807FE0DF83E38A95F1F700C0CF91D9
S11301C0089581E0F0DF83E397E00197F1F7089564
S11301D087B38F6387BB88B3807C88BB8FEF95E33D
S11301E00197F1F700C0000080E3C5DF8FEF91E1D4
S11301F00197F1F700C00000B7DF89E993E00197A8
S1130200F1F700C0B1DF89E993E00197F1F700C08D
S113021080E2B1DF8FEF91E10197F1F700C00000B8
S113022088E2C1DF8CE0BFDF86E0BDDFCADF08956E
S113023082E0B9DF83E397E00197F1F70895623034
S113024059F018F4613071F405C0633039F064304A
S113025049F406C0805805C0805403C0805701C0CB
S11302608053A1DF0895CF93DF93EC018881882325
S113027029F021968ADF89918111FCCFDF91CF91FA
S1130280089597B18F71907E982B97B9369A3699C5
S1130290FECF24B135B1822F932F0895823091F08F
S11302A028F4882349F08130C1F40AC0843071F005
S11302B058F0853091F40EC085B3877C85BB0895D2
S11302C0AD9A0895AC9A0895AB9A089585B388635E
S11302D085BB089585B3806385BB089580917401BF
S11302E08823A1F0863091F090917201809175017C
S11302F098131DC09091700180917601981317C0D6
S113030081E080936F0184E0C9DF089590917301C7
S11303108091750198130BC09091710180917601C1
S1130320981305C081E080936F0184E0B7DF0895DE
S113033080E0A7DF80E0A5DF10926A0110926B01D4
S113034010926C0110926D01089580917701809351
S11303506E018C3328F110927701809176018F5FC2
S11303608C3318F48093760107C010927601809143
S113037075018F5F8093750180917501883180F0DC
S113038010927501809174018F5F873018F4809307
S1130390740102C010927401809169018093770105
S11303A080916F01811101C099DF08958330B9F004
S11303B020F4813061F078F406C08530C1F098F003
S11303C08630E1F418C083E690E04DDF089587E6B7
S11303D090E049DF08958BE690E045DF08958FE6CD
S11303E090E041DF089583E790E03DDF089587E7DB
S11303F090E039DF08958BE790E035DF0895882396
S113040021F0813009F042C01AC04AE050E065E5AD
S113041071E08091750190E0A0D785E591E023DF3C
S113042083ED90E020DF4AE050E065E571E08091E3
S1130430760190E092D785E591E015DF08954AE0D2
S113044050E065E571E08091750190E086D785E51F
S113045091E009DF83ED90E006DF4AE050E065E5D6
S113046071E08091760190E078D785E591E0FBDE3C
S113047083ED90E0F8DE4AE050E065E571E08091BC
S1130480770190E06AD785E591E0EDDE08950F935A
S11304901F93CF93C62F813021F0823009F09DC085
S11304A071C08FDEC5DEEC2FF0E0E830F10508F016
S11304B094C0ED5EFF4F09948091740177DF84EA64
S11304C090E0D1DE80E09BDF88C0809174016EDF14
S11304D084EA90E0C8DE81E092DF7FC080917401FD
S11304E065DF7BC08091740161DF81E088DF75C0C6
S11304F08FE790E0B8DE62E080E0A1DE89E890E07A
S1130500B2DE6BC08BE990E0AEDE4AE050E065E518
S113051071E08091720190E020D785E591E0A3DE3F
S113052083ED90E0A0DE4AE050E065E571E0809163
S1130530700190E012D785E591E095DE4EC0809180
S1130540740134DF80E05BDF48C08BE990E08BDE30
S11305504AE050E065E571E08091730190E0FDD6DA
S113056085E591E080DE83ED90E07DDE4AE050E0B9
S113057065E571E08091710190E0EFD685E591E049
S113058072DE2BC062E080E05ADEC13031F560914A
S11305906A0170916B0180916C0190916D0105E588
S11305A011E022E042E0B9D6C8015DDE8FEDEDDD59
S11305B083E4EBDD80916F01813039F461E08CE0FC
S11305C03EDE86EA90E04FDE08C0AD9B06C061E0E7
S11305D08CE035DE89EA90E046DECF911F910F91E1
S11305E00895CF93DF93E901829931C0EFEFF3EBE4
S11305F03197F1F700C00000EFEFF3E23197F1F724
S113060000C00000829B23C0EFEFF3EB3197F1F7BA
S113061000C00000EFEFF3E23197F1F700C00000F3
S1130620FC0120812F5F261710F4208302C0FC01F7
S11306301082642F81E02BDF60E082E028DF888174
S1130640882329F02196A1DD89918111FCCFDF91C6
S1130650CF9108951F93CF93DF93823009F49EC006
S113066030F4882369F0813009F0A4C171C084306A
S113067009F4E4C008F4BAC0853009F09BC13CC158
S113068066E081E004DF60E082E001DF8CEA90E074
S1130690EADDC0E0839934C08FEF93EB0197F1F763
S11306A000C000008FEF93E20197F1F700C0000053
S11306B0839B26C08FEF93EB0197F1F700C00000F6
S11306C08FEF93E20197F1F700C00000CF5F79DD6F
S11306D066E081E0DCDE60E082E0D9DEC13041F03A
S11306E018F0C23069F408C08CEA90E0BCDD0EC09A
S11306F084EB90E0B8DD13C08CEB90E0B4DD18C05F
S1130700C13069F018F0C230E1F412C02CEA30E0D4
S113071046E06CE385E791E064DFC0E0BBCF24EB07
S113072030E046E06CE386E791E05BDFC1E0B2CF06
S11307302CEB30E046E067E084E791E052DFC2E072
S1130740A9CFC33008F4A6CF1092770180E033C15B
S11307509091770180916E019813F7DD809161008B
S11307608F5F843018F48093610003C081E080932C
S1130770610027DD5DDD86EC90E075DD60E082E000
S113078086DE4AE050E065E571E08091610090E02A
S1130790E4D585E591E067DD80E00DC190917701B6
S11307A080916E019813D1DD809169018F5F86304D
S11307B01CF48093690103C08BEF8093690101DD10
S11307C037DD85ED90E04FDD60E082E060DE809112
S11307D069014AE050E065E571E0992787FD90954D
S11307E0BCD585E591E03FDD80E0E5C090917701DF
S11307F080916E019813A9DD809162008F5F8B3028
S11308001CF48093620003C086EF80936200D9DCFD
S11308100FDD85EE90E027DD60E082E038DE809138
S113082062004AE050E065E571E0992787FD909504
S113083094D585E591E017DD80E0BDC065E081E0F9
S113084026DE60E082E023DE87EF90E00CDDC0E08E
S113085011E0D0E02091770190916E01291375DDAC
S113086083992EC08FEF93EB0197F1F700C000003E
S11308708FEF93E20197F1F700C00000839B20C043
S11308808FEF93EB0197F1F700C000008FEF93E235
S11308900197F1F700C00000CF5F65E0812FF7DD1D
S11308A06D2F82E0F4DDCC2319F0C13049F404C08B
S11308B087EF90E0D8DC09C083E091E0D4DC0EC07F
S11308C0CC2319F0C13099F409C027EF30E045E09A
S11308D068E182E791E085DECD2FBCCF23E031E0F3
S11308E045E06CE380E791E07CDEC12FB3CFC230FA
S11308F008F4B0CF80E05FC067E081E0C8DD60E06D
S113090082E0C5DD8FE091E0AEDCC0E011E0D0E034
S11309102091770190916E01291317DD83992EC0E0
S11309208FEF93EB0197F1F700C000008FEF93E294
S11309300197F1F700C00000839B20C08FEF93EB79
S11309400197F1F700C000008FEF93E20197F1F7F0
S113095000C00000CF5F67E0812F99DD6D2F82E03A
S113096096DDCC2319F0C13049F404C08FE091E046
S11309707ADC09C08BE191E076DC0EC0CC2319F05F
S1130980C13099F409C02FE031E047E068E183E722
S113099091E027DECD2FBCCF2BE131E047E06CE3C3
S11309A081E791E01EDEC12FB3CFC23008F4B0CF8F
S11309B080E001C081E0DF91CF911F91089582E230
S11309C08093760185E0809375011092770196E01B
S11309D0909374018093720183E28093700197E095
S11309E0909373018093710184E034DE80E032DE01
S11309F081E0809369010895CF93DF9380E0D6E08E
S1130A00C7E0833009F44CC130F4813009F473C079
S1130A10823049F4D8C0853009F41AC208F4A8C158
S1130A20863009F487C2CDDB65E081E030DD60E02B
S1130A3082E02DDD87E291E016DC3FC086DC8299FE
S1130A401FC08FEF93EB0197F1F700C000008FEF09
S1130A5093E20197F1F700C00000829B11C08FEF71
S1130A6093EB0197F1F700C000008FEF93E2019739
S1130A70F1F700C0000084E0EDDD87E291E0F3DBF4
S1130A8084991BC08FEF93EB0197F1F700C000002E
S1130A908FEF93E20197F1F700C00000849B0DC033
S1130AA08FEF93EB0197F1F700C000008FEF93E213
S1130AB00197F1F700C00000DAC28399A4C28FEF56
S1130AC093EB0197F1F700C000008FEF93E20197D9
S1130AD0F1F700C00000839B96C28FEF93EB019760
S1130AE0F1F700C000008FEF93E20197F1F700C027
S1130AF0000081E086CF65DB6C2F81E0C8DC60E01C
S1130B0082E0C5DC80E391E0AEDB3FC01EDC82996D
S1130B101FC08FEF93EB0197F1F700C000008FEF38
S1130B2093E20197F1F700C00000829B11C08FEFA0
S1130B3093EB0197F1F700C000008FEF93E2019768
S1130B40F1F700C0000085E085DD80E391E08BDBF8
S1130B5084991BC08FEF93EB0197F1F700C000005D
S1130B608FEF93E20197F1F700C00000849B0DC062
S1130B708FEF93EB0197F1F700C000008FEF93E242
S1130B800197F1F700C0000072C2839943C28FEF4E
S1130B9093EB0197F1F700C000008FEF93E2019708
S1130BA0F1F700C00000839B35C28FEF93EB0197F0
S1130BB0F1F700C000008FEF93E20197F1F700C056
S1130BC0000082E01ECFFDDA86EC90E04CDB60E0B2
S1130BD082E05DDC4AE050E065E571E0809161000F
S1130BE090E0BBD385E591E03EDB3CC0AEDB82996F
S1130BF01CC08FEF93EB0197F1F700C000008FEF5B
S1130C0093E20197F1F700C00000829B0EC08FEFC2
S1130C1093EB0197F1F700C000008FEF93E2019787
S1130C20F1F700C0000081E015DD84991BC08FEF4F
S1130C3093EB0197F1F700C000008FEF93E2019767
S1130C40F1F700C00000849B0DC08FEF93EB019778
S1130C50F1F700C000008FEF93E20197F1F700C0B5
S1130C60000005C28399DDC18FEF93EB0197F1F783
S1130C7000C000008FEF93E20197F1F700C000007D
S1130C80839BCFC18FEF93EB0197F1F700C0000076
S1130C908FEF93E20197F1F700C0000083E0B1CE3B
S1130CA090DA63E081E0F3DB60E082E0F0DB8AE38A
S1130CB091E0D9DA3FC049DB82991FC08FEF93EBF3
S1130CC00197F1F700C000008FEF93E20197F1F76D
S1130CD000C00000829B11C08FEF93EB0197F1F7E6
S1130CE000C000008FEF93E20197F1F700C000000D
S1130CF080E0B0DC8AE391E0B6DA84991BC08FEF20
S1130D0093EB0197F1F700C000008FEF93E2019796
S1130D10F1F700C00000849B0DC08FEF93EB0197A7
S1130D20F1F700C000008FEF93E20197F1F700C0E4
S1130D3000009DC183997CC18FEF93EB0197F1F77C
S1130D4000C000008FEF93E20197F1F700C00000AC
S1130D50839B6EC18FEF93EB0197F1F700C0000006
S1130D608FEF93E20197F1F700C0000084E049CED1
S1130D7028DA5EDA85ED90E076DA60E082E087DBFF
S1130D80809169014AE050E065E571E0992787FDAB
S1130D909095E3D285E591E066DA3CC0D6DA829993
S1130DA01CC08FEF93EB0197F1F700C000008FEFA9
S1130DB093E20197F1F700C00000829B0EC08FEF11
S1130DC093EB0197F1F700C000008FEF93E20197D6
S1130DD0F1F700C0000082E03DDC84991BC08FEF76
S1130DE093EB0197F1F700C000008FEF93E20197B6
S1130DF0F1F700C00000849B0DC08FEF93EB0197C7
S1130E00F1F700C000008FEF93E20197F1F700C003
S1130E1000002DC1839913C18FEF93EB0197F1F774
S1130E2000C000008FEF93E20197F1F700C00000CB
S1130E30839B05C18FEF93EB0197F1F700C000008E
S1130E408FEF93E20197F1F700C0000085E0D9CD60
S1130E50B8D9EED985EE90E006DA60E082E017DBDF
S1130E60809162004AE050E065E571E0992787FDD2
S1130E70909573D285E591E0F6D93DC066DA829902
S1130E801CC08FEF93EB0197F1F700C000008FEFC8
S1130E9093E20197F1F700C00000829B0EC08FEF30
S1130EA093EB0197F1F700C000008FEF93E20197F5
S1130EB0F1F700C0000083E0CDDB84991CC08FEF04
S1130EC093EB0197F1F700C000008FEF93E20197D5
S1130ED0F1F700C00000849B0EC08FEF93EB0197E5
S1130EE0F1F700C000008FEF93E20197F1F700C023
S1130EF000001EDABCC08399A9C08FEF93EB019761
S1130F00F1F700C000008FEF93E20197F1F700C002
S1130F100000839B9BC08FEF93EB0197F1F700C018
S1130F2000008FEF93E20197F1F700C0000000DAB0
S1130F308D2F67CD46D97CD98FE391E094D960E0B9
S1130F4082E0A5DA87E491E08ED93FC0FED9829988
S1130F5084C08FEF93EB0197F1F700C000008FEF8F
S1130F6093E20197F1F700C00000829B76C08FEFF7
S1130F7093EB0197F1F700C000008FEF93E2019724
S1130F80F1F700C00000109260001092540119D9CA
S1130F90AA986DC08FEF93EB0197F1F700C00000A2
S1130FA08FEF93E20197F1F700C00000849B0DC01E
S1130FB08FEF93EB0197F1F700C000008FEF93E2FE
S1130FC00197F1F700C0000052C0839949C08FEF28
S1130FD093EB0197F1F700C000008FEF93E20197C4
S1130FE0F1F700C00000839B3BC08FEF93EB0197A8
S1130FF0F1F700C000008FEF93E20197F1F700C012
S113100000008C2FFECC9091770180916E01981393
S113101015CD15CD9091770180916E01981376CD01
S113102076CD9091770180916E019813DFCDDFCD5D
S11310309091770180916E0198133DCE3DCE9091B1
S1131040770180916E019813A9CEA9CE9091770172
S113105080916E01981312CF12CF8499B6CF9ACF94
S11310609091770180916E01981370CF70CF81E0D9
S1131070DF91CF91089580E487B983E086B9379AE8
S1131080369A3699FECF84B195B182B38C6182BB16
S11310908CE384BB85B38C6385BB85B3837C85BBC0
S11310A0A89A89E993E00197F1F700C091D864E028
S11310B081E0EDD99FEF2FED80E1915020408040F9
S11310C0E1F700C000007DD87ADC81EF8DBD80EFB0
S11310D08CBD84E089BF85E08EBD789410926F0149
S11310E008951F920F920FB60F9211248F9381EFE0
S11310F08DBD80EF8CBD809177018F5F80937701E8
S11311008F910F900FBE0F901F901895B4DFC3E717
S1131110D1E00F2EF1E7EF2EF1E0FF2EF02D02E7E4
S113112011E00F2EF0E7CF2EF1E0DF2EF02D90919D
S1131130770180916E01981741F107D98091600081
S11311408823C9F063E081E0A2D961E082E09FD9FD
S113115080916F01813079F48091600081110BC01E
S1131160AA9A36D863E081E092D961E082E08FD90F
S113117081E08093600080915401883730F01092B0
S11311806000109254011DD8AA9880916F0181309B
S113119021F582994EC08FEF93EB0197F1F700C0D0
S11311A00000EFEFF3E23197F1F700C00000829BFB
S11311B040C08FEF93EB0197F1F700C00000EFEF11
S11311C0F3E23197F1F700C000001092540182E07D
S11311D080936F0180E062D82CC0823051F58091F9
S11311E074018823A9F0863099F0F80190818091E8
S11311F0750198131EC02091760130E0F6018081BC
S113120090E0019628173907A1F410926F0111C0DC
S113121098818091750198130CC02091760130E07B
S1131220F701808190E001962817390711F4109294
S11312306F01849933C08FEF93EB0197F1F700C0EE
S11312400000EFEFF3E23197F1F700C00000849B58
S113125025C08FEF93EB0197F1F700C00000EFEF8B
S1131260F3E23197F1F700C000001092540180912D
S1131270600081110CC0AA9AABD763E081E007D962
S113128061E082E004D981E08093600007C0B4DBB0
S113129063E081E0FCD861E082E0F9D8839947CF2C
S11312A08FEF93EB0197F1F700C00000EFEFF3E24B
S11312B03197F1F700C00000839B39CF8FEF93EB98
S11312C00197F1F700C00000EFEFF3E23197F1F777
S11312D000C000001092540180916100823069F0D6
S11312E0833099F0813009F022CFAD9B03C080E0B8
S11312F0D5D71DCF81E0D2D71ACFAD9B03C080E0F4
S1131300CDD715CF85E0CAD712CFAD9B03C080E0FF
S1131310C5D70DCF84E0C2D70ACFEF920F931F93A6
S1131320CF93C02F47FF02C034E101C034E0E42F63
S1131330FF27E7FDF095F7FF03C0F195E195F1096B
S1131340E32E022F2E2F4C2F512F26D08C2F912F8E
S1131350CF911F910F91EF900895FB019F01E894A5
S11313604230BCF04532ACF44A3029F497FB1EF409
S1131370909581959F4F642F772772D2805D8A3331
S11313800CF0895D8193CB010097A9F716F45DE217
S113139051931082C90154C26F927F929F92AF926F
S11313A0BF92CF92DF92EF92FF920F931F93CF934E
S11313B0DF93CDB7DEB729970FB6F894DEBF0FBE23
S11313C0CDBF6A01B22E102F0C3318F4F02EF39413
S11313D002C05CE3F52E0F2D27E0AE014F5F5F4F97
S11313E057D17981272F2970213031F0E1FC06C0D3
S11313F0E0FE06C060E205C06DE203C06BE201C01E
S113140060E073FF3DC0662311F084E001C083E017
S11314108B1510F4B81A01C0B12CE4FC0BC08B2D51
S1131420F60190E202C0919381508111FCCFCB0C64
S1131430D11CB12C662319F0D6016D936D01E2FE27
S11314400AC08EE4F601808391E491838283F3E001
S1131450CF0ED11C0CC08EE6D6018C9391E611966A
S11314609C93119712968C93B3E0CB0ED11C8B2DC9
S1131470F60190E202C0919381508111FCCF40C0EB
S113148072FF45C0662311F084E001C083E08B1530
S113149010F4B81A01C0B12CE4FC0BC08B2DF6017A
S11314A090E202C0919381508111FCCFCB0CD11CEE
S11314B0B12C662319F0F60161936F01E2FE0EC0B0
S11314C089E4D6018C938EE411968C93119786E46B
S11314D012968C93B3E0CB0ED11C0AC089E6F601B8
S11314E080838EE6818386E68283F3E0CF0ED11C6F
S11314F08B2DF60190E202C0919381508111FCCFB3
S1131500F601EB0DF11D10822EEF3FEFACC0A1E010
S1131510611101C0A0E04A2F50E01816190624F406
S11315209C012F5F3F4F02C021E030E0240F351FA4
S1131530112329F0412F50E04F5F5F4F02C040E07C
S113154050E0420F531F2B2D30E04217530714F481
S1131550B41A01C0B12C3E2D3071E4FC0DC0E3FC83
S11315600BC02B2DF60140E202C041932150211102
S1131570FCCFCB0CD11CB12CAA2319F0D6016D934E
S11315806D0131110BC02B2DF60130E302C03193F4
S113159021502111FCCFCB0CD11CB12CF80E0A81A7
S11315A040E1A42EA72274FF03C0013309F4FA9486
S11315B01F142CF42F2D293018F028E001C021E04D
S11315C0AC0197FF02C040E050E060E070E03EE212
S11315D0932EFC01E21BF1099F01DC01A41BB50B56
S11315E0FE013196EA0FFB1FA12FB0E06624772499
S11315F06A1A7B0A4F3F1FEF510719F4D6019D92D7
S11316006D018417950754F0241735073CF47F01C6
S1131610E60EF71ED70111961C9101C010E341504C
S113162051096F5F7F4F4615570524F0D6011D936E
S11316306D01E0CF4817590739F4063320F4053318
S113164019F4A11001C011E3F60111938B2DDF01F0
S113165090E202C09D9381508111FCCFEB0DF11DEE
S1131660108220E030E0C90129960FB6F894DEBF5D
S11316700FBECDBFDF91CF911F910F91FF90EF90DF
S1131680DF90CF90BF90AF909F907F906F90089520
S1131690283008F027E03327DA01990F311D87FD40
S11316A0916000966105710539F432602E5F3D93B7
S11316B030E32A95E1F708959F3F30F080387105B3
S11316C0610509F03C5F3C5F3D93913008F0806810
S11316D0911DDF93CF931F930F93FF92EF92192FD6
S11316E0987F9695E92F96959695E90FFF27E057F1
S11316F0FF4F99273327EE24FF24A701E701059024
S11317000894079428F4360FE71EF81E491F511D4C
S1131710660F771F881F991F0694A1F705900794F9
S113172028F4E70EF81E491F561FC11D770F881FA6
S1131730991F661F0694A1F70590079428F4F80EE4
S1131740491F561FC71FD11D880F991F661F771F7A
S11317500694A1F70590079420F4490F561FC71F5C
S1131760D81F990F661F771F881F0694A9F78491C5
S11317701095177041F0D695C79557954795F794EE
S1131780E7941A95C1F7E6E3F0E068941590159193
S113179035916591959105907FE27395E118F10A71
S11317A0430B560BC90BD009C0F7E10CF11E431FC4
S11317B0561FC91FD01D7EF4703311F48A95E6CFED
S11317C0E894015030F0080F0AF40027021708F4D7
S11317D0202F2395022F7A3328F079E37D932A95DD
S11317E0E9F710C07D932A9589F606949795679535
S11317F0379517951794E118F10A430B560BC90B4B
S1131800D00998F023957E9173957A3308F070E3AC
S11318107C932013B8F77E9170617D9330F08395AB
S113182071E37D9370E32A95E1F71124EF90FF9023
S11318300F911F91CF91DF91992787FD909508957E
S1131840DC01FC01672F71917723E1F7329704C023
S11318507C916D9370836291AE17BF07C8F30895AE
S1131860AA1BBB1B51E107C0AA1FBB1FA617B707C2
S113187010F0A61BB70B881F991F5A95A9F78095DE
S10F18809095BC01CD010895F894FFCFB1
S113188C010302536F20004D6F2000446920004D6A
S113189C692000446F2000467220005361200047E9
S11318AC7574656E20546167005765636B657220AF
S11318BC73746172742056322E36005765636B7ADA
S11318CC6569743A20005765004C69005374756E51
S11318DC64656E004D696E7574656E00576F636850
S11318EC656E546167004C616D70656E73746165EF
S11318FC726B653A0053656B756E64656E6F6666E4
S113190C7365743A0054656D706572617475726FA9
S113191C66667365743A00575374756E64656E5BD2
S113192C305D00574D696E7574656E5B305D0057A4
S113193C5374756E64656E5B315D00574D696E75DD
S113194C74656E5B315D005765726B74616773000F
S113195C576F68656E656E6465005A6569740044FA
S113196C6973706C617900617573736368616C740D
S107197C656E3F0051
S9030000FC
